{
  "contractName": "TradeableContract",
  "abi": [
    {
      "constant": false,
      "inputs": [
        {
          "name": "tokensAddr",
          "type": "address"
        },
        {
          "name": "valueToWithdraw",
          "type": "uint256"
        }
      ],
      "name": "withdrawTokens",
      "outputs": [],
      "payable": false,
      "stateMutability": "nonpayable",
      "type": "function"
    },
    {
      "constant": true,
      "inputs": [],
      "name": "isAvailableToSell",
      "outputs": [
        {
          "name": "",
          "type": "bool"
        }
      ],
      "payable": false,
      "stateMutability": "view",
      "type": "function"
    },
    {
      "constant": false,
      "inputs": [],
      "name": "kill",
      "outputs": [],
      "payable": false,
      "stateMutability": "nonpayable",
      "type": "function"
    },
    {
      "constant": false,
      "inputs": [
        {
          "name": "_new",
          "type": "address"
        }
      ],
      "name": "changeOwnershipWithoutTrade",
      "outputs": [],
      "payable": false,
      "stateMutability": "nonpayable",
      "type": "function"
    },
    {
      "constant": false,
      "inputs": [],
      "name": "changeOwnershipWithTrade",
      "outputs": [],
      "payable": true,
      "stateMutability": "payable",
      "type": "function"
    },
    {
      "constant": true,
      "inputs": [],
      "name": "owner",
      "outputs": [
        {
          "name": "",
          "type": "address"
        }
      ],
      "payable": false,
      "stateMutability": "view",
      "type": "function"
    },
    {
      "constant": true,
      "inputs": [],
      "name": "priceToSell",
      "outputs": [
        {
          "name": "",
          "type": "uint256"
        }
      ],
      "payable": false,
      "stateMutability": "view",
      "type": "function"
    },
    {
      "constant": false,
      "inputs": [
        {
          "name": "price",
          "type": "uint256"
        }
      ],
      "name": "setAvailableToSell",
      "outputs": [],
      "payable": false,
      "stateMutability": "nonpayable",
      "type": "function"
    },
    {
      "constant": false,
      "inputs": [],
      "name": "withdrawETH",
      "outputs": [],
      "payable": false,
      "stateMutability": "nonpayable",
      "type": "function"
    },
    {
      "inputs": [],
      "payable": false,
      "stateMutability": "nonpayable",
      "type": "constructor"
    },
    {
      "anonymous": false,
      "inputs": [
        {
          "indexed": false,
          "name": "old",
          "type": "address"
        },
        {
          "indexed": false,
          "name": "current",
          "type": "address"
        }
      ],
      "name": "NewOwnerWithoutTradeEvent",
      "type": "event"
    },
    {
      "anonymous": false,
      "inputs": [
        {
          "indexed": false,
          "name": "old",
          "type": "address"
        },
        {
          "indexed": false,
          "name": "current",
          "type": "address"
        },
        {
          "indexed": false,
          "name": "price",
          "type": "uint256"
        }
      ],
      "name": "NewOwnerWithTradeEvent",
      "type": "event"
    },
    {
      "anonymous": false,
      "inputs": [
        {
          "indexed": false,
          "name": "contractoOwner",
          "type": "address"
        },
        {
          "indexed": false,
          "name": "valueToWithdraw",
          "type": "uint256"
        }
      ],
      "name": "WithdrawTokensEvent",
      "type": "event"
    },
    {
      "anonymous": false,
      "inputs": [
        {
          "indexed": false,
          "name": "contractoOwner",
          "type": "address"
        }
      ],
      "name": "WithdrawETHEvent",
      "type": "event"
    },
    {
      "anonymous": false,
      "inputs": [
        {
          "indexed": false,
          "name": "contractoOwner",
          "type": "address"
        },
        {
          "indexed": false,
          "name": "contractAddr",
          "type": "address"
        }
      ],
      "name": "AvaliableToSellEvent",
      "type": "event"
    }
  ],
  "bytecode": "0x6060604052341561000f57600080fd5b336000806101000a81548173ffffffffffffffffffffffffffffffffffffffff021916908373ffffffffffffffffffffffffffffffffffffffff160217905550610b3a8061005e6000396000f300606060405260043610610099576000357c0100000000000000000000000000000000000000000000000000000000900463ffffffff16806306b091f91461009e57806307cd2589146100e057806341c0e1b51461010d5780636e5fc009146101225780637c37c3ed1461015b5780638da5cb5b14610165578063ca6ba723146101ba578063d4faa55d146101e3578063e086e5ec14610206575b600080fd5b34156100a957600080fd5b6100de600480803573ffffffffffffffffffffffffffffffffffffffff1690602001909190803590602001909190505061021b565b005b34156100eb57600080fd5b6100f3610422565b604051808215151515815260200191505060405180910390f35b341561011857600080fd5b610120610435565b005b341561012d57600080fd5b610159600480803573ffffffffffffffffffffffffffffffffffffffff169060200190919050506104ca565b005b61016361063b565b005b341561017057600080fd5b610178610852565b604051808273ffffffffffffffffffffffffffffffffffffffff1673ffffffffffffffffffffffffffffffffffffffff16815260200191505060405180910390f35b34156101c557600080fd5b6101cd610877565b6040518082815260200191505060405180910390f35b34156101ee57600080fd5b610204600480803590602001909190505061087d565b005b341561021157600080fd5b6102196109b5565b005b6000809054906101000a900473ffffffffffffffffffffffffffffffffffffffff1673ffffffffffffffffffffffffffffffffffffffff163373ffffffffffffffffffffffffffffffffffffffff1614151561027657600080fd5b8173ffffffffffffffffffffffffffffffffffffffff1660405180807f7472616e7366657228616464726573732c2075696e7432353629000000000000815250601a01905060405180910390207c010000000000000000000000000000000000000000000000000000000090046000809054906101000a900473ffffffffffffffffffffffffffffffffffffffff16836040518363ffffffff167c0100000000000000000000000000000000000000000000000000000000028152600401808373ffffffffffffffffffffffffffffffffffffffff1673ffffffffffffffffffffffffffffffffffffffff1681526020018281526020019250505060006040518083038160008761646e5a03f192505050151561039257600080fd5b7fd9a463edd75c3e010a13f6d998d482147776bfb5a73e857086d21ac5ab6b75826000809054906101000a900473ffffffffffffffffffffffffffffffffffffffff1682604051808373ffffffffffffffffffffffffffffffffffffffff1673ffffffffffffffffffffffffffffffffffffffff1681526020018281526020019250505060405180910390a15050565b600260009054906101000a900460ff1681565b6000809054906101000a900473ffffffffffffffffffffffffffffffffffffffff1673ffffffffffffffffffffffffffffffffffffffff163373ffffffffffffffffffffffffffffffffffffffff1614151561049057600080fd5b6000809054906101000a900473ffffffffffffffffffffffffffffffffffffffff1673ffffffffffffffffffffffffffffffffffffffff16ff5b6000809054906101000a900473ffffffffffffffffffffffffffffffffffffffff1673ffffffffffffffffffffffffffffffffffffffff163373ffffffffffffffffffffffffffffffffffffffff1614151561052557600080fd5b806000806101000a81548173ffffffffffffffffffffffffffffffffffffffff021916908373ffffffffffffffffffffffffffffffffffffffff1602179055507f9a3ebb58a6c6c51067eb76d32581efeca5cb8f18f478260eccfcbc0f6d4175836000809054906101000a900473ffffffffffffffffffffffffffffffffffffffff1682604051808373ffffffffffffffffffffffffffffffffffffffff1673ffffffffffffffffffffffffffffffffffffffff1681526020018273ffffffffffffffffffffffffffffffffffffffff1673ffffffffffffffffffffffffffffffffffffffff1681526020019250505060405180910390a16000600260006101000a81548160ff02191690831515021790555050565b600080600060011515600260009054906101000a900460ff16151514151561066257600080fd5b600154341015151561067357600080fd5b60009250601460015481151561068557fe5b0491508273ffffffffffffffffffffffffffffffffffffffff166108fc839081150290604051600060405180830381858888f1935050505015156106c857600080fd5b816001540390506000809054906101000a900473ffffffffffffffffffffffffffffffffffffffff1673ffffffffffffffffffffffffffffffffffffffff166108fc829081150290604051600060405180830381858888f19350505050151561073057600080fd5b7fb678d90ee5a1e6747174001fb026919312b7bee8ce51b2611a118d026f0baad46000809054906101000a900473ffffffffffffffffffffffffffffffffffffffff1633600154604051808473ffffffffffffffffffffffffffffffffffffffff1673ffffffffffffffffffffffffffffffffffffffff1681526020018373ffffffffffffffffffffffffffffffffffffffff1673ffffffffffffffffffffffffffffffffffffffff168152602001828152602001935050505060405180910390a1336000806101000a81548173ffffffffffffffffffffffffffffffffffffffff021916908373ffffffffffffffffffffffffffffffffffffffff1602179055506000600260006101000a81548160ff021916908315150217905550505050565b6000809054906101000a900473ffffffffffffffffffffffffffffffffffffffff1681565b60015481565b6000809054906101000a900473ffffffffffffffffffffffffffffffffffffffff1673ffffffffffffffffffffffffffffffffffffffff163373ffffffffffffffffffffffffffffffffffffffff161415156108d857600080fd5b6001600260006101000a81548160ff021916908315150217905550806001819055507fe49eb4b758b4cf05f8be0e4fe524b59a5167d2778884883b4815b2ac3860959c6000809054906101000a900473ffffffffffffffffffffffffffffffffffffffff1630604051808373ffffffffffffffffffffffffffffffffffffffff1673ffffffffffffffffffffffffffffffffffffffff1681526020018273ffffffffffffffffffffffffffffffffffffffff1673ffffffffffffffffffffffffffffffffffffffff1681526020019250505060405180910390a150565b6000809054906101000a900473ffffffffffffffffffffffffffffffffffffffff1673ffffffffffffffffffffffffffffffffffffffff163373ffffffffffffffffffffffffffffffffffffffff16141515610a1057600080fd5b6000809054906101000a900473ffffffffffffffffffffffffffffffffffffffff1673ffffffffffffffffffffffffffffffffffffffff166108fc3073ffffffffffffffffffffffffffffffffffffffff16319081150290604051600060405180830381858888f193505050501515610a8857600080fd5b7f146b64de801afa7b1d4d0df5d0f99aa1cc098e89d16f2aefb098f305292948116000809054906101000a900473ffffffffffffffffffffffffffffffffffffffff16604051808273ffffffffffffffffffffffffffffffffffffffff1673ffffffffffffffffffffffffffffffffffffffff16815260200191505060405180910390a15600a165627a7a72305820cbd3900573196806153dfecbb34d5a478a67fd71fa58de554ec6bcf60614a22d0029",
  "source": "pragma solidity ^0.4.14;\r\n\r\ncontract TradeableContract {\r\n    \r\n\taddress public owner;\r\n\r\n\tuint public priceToSell;\r\n\tbool  public isAvailableToSell;\r\n\r\n\tevent NewOwnerWithoutTradeEvent(address  old, address current);\r\n\tevent NewOwnerWithTradeEvent(address old, address current, uint price);\r\n\tevent WithdrawTokensEvent(address contractoOwner, uint256 valueToWithdraw);\r\n\tevent WithdrawETHEvent(address contractoOwner);\r\n\tevent AvaliableToSellEvent(address contractoOwner, address contractAddr);\r\n\r\n\tfunction TradeableContract () public {\r\n\t\towner = msg.sender;\r\n\t}\r\n\r\n\tmodifier onlyOwner {\r\n\t\trequire(msg.sender == owner); \t_;\r\n\t}\t\t\r\n\r\n\r\n\tfunction kill() public onlyOwner {\r\n\t\tselfdestruct(owner);\r\n\t}\r\n\t\r\n\t/*\r\n\t *\tTransfer tokens to the owner\r\n\t *\tIt is necessary to call the transfer function of the original ERC20 contract code \r\n\t */\r\n \tfunction withdrawTokens (address tokensAddr, uint256 valueToWithdraw) public onlyOwner {\r\n\r\n\t    if (!tokensAddr.call(bytes4(keccak256(\"transfer(address, uint256)\")), owner, valueToWithdraw)) \r\n\t\t\trevert();\r\n\t\t\r\n\t\tWithdrawTokensEvent(owner, valueToWithdraw);\r\n\t\t\r\n \t}\r\n\r\n\t/*\r\n\t *\tTransfer ETH to the owner\r\n\t *\tIt is necessary  to avoid lock funds the were send to the contract \r\n\t */\r\n \tfunction withdrawETH () public onlyOwner {\r\n \t    \r\n        owner.transfer((address(this)).balance); \r\n\t\t\r\n\t\tWithdrawETHEvent(owner);\r\n \t}\r\n\r\n \tfunction setAvailableToSell (uint price) public onlyOwner {\r\n\t\tisAvailableToSell = true;\r\n\t\tpriceToSell = price;\r\n\t\tAvaliableToSellEvent(owner, address(this));\r\n\t}\r\n\r\n \tfunction changeOwnershipWithTrade () public payable {\r\n\r\n \t    require (isAvailableToSell==true);\r\n \t    require (msg.value >= priceToSell);     \r\n        \r\n        // fee is charged\r\n        //TODO: alterar fee address\r\n        address feeAddress = 0x0;\r\n        uint valueToFee = priceToSell/20;\r\n        feeAddress.transfer(valueToFee);\r\n\r\n        uint valueToOwner = priceToSell-valueToFee; \r\n        owner.transfer(valueToOwner);\r\n\t\t\r\n\t\t\r\n    \tNewOwnerWithTradeEvent(owner, msg.sender, priceToSell); \r\n        \r\n        //Transfer the contract ownership \r\n        owner = msg.sender;\r\n \t    \r\n        isAvailableToSell = false;\r\n \t}\r\n \t\r\n    function changeOwnershipWithoutTrade(address _new) public onlyOwner {    \t\t\r\n    \t\r\n\t\towner = _new; \r\n    \tNewOwnerWithoutTradeEvent(owner, _new); \r\n\t\tisAvailableToSell = false;\r\n    }\r\n\t\r\n} \r\n\r\n",
  "sourcePath": "C:\\workspace\\tradeable-wallet\\back-blockchain\\contracts\\TradeableContract.sol",
  "compiler": {
    "name": "solc",
    "version": "0.4.18+commit.9cf6e910.Emscripten.clang"
  },
  "schemaVersion": "1.0.1",
  "updatedAt": "2018-08-12T03:39:45.693Z"
}