{
  "contractName": "ContractCreator",
  "abi": [
    {
      "constant": true,
      "inputs": [
        {
          "name": "",
          "type": "uint256"
        }
      ],
      "name": "contracts",
      "outputs": [
        {
          "name": "",
          "type": "address"
        }
      ],
      "payable": false,
      "stateMutability": "view",
      "type": "function"
    },
    {
      "constant": true,
      "inputs": [],
      "name": "stopped",
      "outputs": [
        {
          "name": "",
          "type": "bool"
        }
      ],
      "payable": false,
      "stateMutability": "view",
      "type": "function"
    },
    {
      "constant": true,
      "inputs": [],
      "name": "owner",
      "outputs": [
        {
          "name": "",
          "type": "address"
        }
      ],
      "payable": false,
      "stateMutability": "view",
      "type": "function"
    },
    {
      "inputs": [],
      "payable": false,
      "stateMutability": "nonpayable",
      "type": "constructor"
    },
    {
      "anonymous": false,
      "inputs": [
        {
          "indexed": false,
          "name": "addr",
          "type": "address"
        }
      ],
      "name": "NewTradeableWallet",
      "type": "event"
    },
    {
      "constant": false,
      "inputs": [],
      "name": "kill",
      "outputs": [],
      "payable": false,
      "stateMutability": "nonpayable",
      "type": "function"
    },
    {
      "constant": false,
      "inputs": [],
      "name": "createTradeableContract",
      "outputs": [
        {
          "name": "subcontractAddr",
          "type": "address"
        }
      ],
      "payable": false,
      "stateMutability": "nonpayable",
      "type": "function"
    },
    {
      "constant": false,
      "inputs": [
        {
          "name": "b",
          "type": "bool"
        }
      ],
      "name": "setCircuitBreaker",
      "outputs": [],
      "payable": false,
      "stateMutability": "nonpayable",
      "type": "function"
    },
    {
      "constant": true,
      "inputs": [],
      "name": "getContractCount",
      "outputs": [
        {
          "name": "contractCount",
          "type": "uint256"
        }
      ],
      "payable": false,
      "stateMutability": "view",
      "type": "function"
    },
    {
      "constant": true,
      "inputs": [
        {
          "name": "index",
          "type": "uint256"
        }
      ],
      "name": "getContractAt",
      "outputs": [
        {
          "name": "",
          "type": "address"
        }
      ],
      "payable": false,
      "stateMutability": "view",
      "type": "function"
    },
    {
      "constant": true,
      "inputs": [],
      "name": "getOwner",
      "outputs": [
        {
          "name": "",
          "type": "address"
        }
      ],
      "payable": false,
      "stateMutability": "view",
      "type": "function"
    }
  ],
  "bytecode": "0x608060405260008060006101000a81548160ff02191690831515021790555034801561002a57600080fd5b5033600060016101000a81548173ffffffffffffffffffffffffffffffffffffffff021916908373ffffffffffffffffffffffffffffffffffffffff160217905550611f638061007b6000396000f300608060405260043610610099576000357c0100000000000000000000000000000000000000000000000000000000900463ffffffff16806341c0e1b51461009e57806342506449146100b5578063474da79a146100e457806375f12b211461015157806379b0676b14610180578063893d20e8146101ed5780638da5cb5b146102445780639399869d1461029b578063b5e751df146102c6575b600080fd5b3480156100aa57600080fd5b506100b361031d565b005b3480156100c157600080fd5b506100e26004803603810190808035151590602001909291905050506103b4565b005b3480156100f057600080fd5b5061010f6004803603810190808035906020019092919050505061042c565b604051808273ffffffffffffffffffffffffffffffffffffffff1673ffffffffffffffffffffffffffffffffffffffff16815260200191505060405180910390f35b34801561015d57600080fd5b5061016661046a565b604051808215151515815260200191505060405180910390f35b34801561018c57600080fd5b506101ab6004803603810190808035906020019092919050505061047c565b604051808273ffffffffffffffffffffffffffffffffffffffff1673ffffffffffffffffffffffffffffffffffffffff16815260200191505060405180910390f35b3480156101f957600080fd5b506102026104d6565b604051808273ffffffffffffffffffffffffffffffffffffffff1673ffffffffffffffffffffffffffffffffffffffff16815260200191505060405180910390f35b34801561025057600080fd5b506102596104ff565b604051808273ffffffffffffffffffffffffffffffffffffffff1673ffffffffffffffffffffffffffffffffffffffff16815260200191505060405180910390f35b3480156102a757600080fd5b506102b0610525565b6040518082815260200191505060405180910390f35b3480156102d257600080fd5b506102db610532565b604051808273ffffffffffffffffffffffffffffffffffffffff1673ffffffffffffffffffffffffffffffffffffffff16815260200191505060405180910390f35b600060019054906101000a900473ffffffffffffffffffffffffffffffffffffffff1673ffffffffffffffffffffffffffffffffffffffff163373ffffffffffffffffffffffffffffffffffffffff1614151561037957600080fd5b600060019054906101000a900473ffffffffffffffffffffffffffffffffffffffff1673ffffffffffffffffffffffffffffffffffffffff16ff5b600060019054906101000a900473ffffffffffffffffffffffffffffffffffffffff1673ffffffffffffffffffffffffffffffffffffffff163373ffffffffffffffffffffffffffffffffffffffff1614151561041057600080fd5b806000806101000a81548160ff02191690831515021790555050565b60018181548110151561043b57fe5b906000526020600020016000915054906101000a900473ffffffffffffffffffffffffffffffffffffffff1681565b6000809054906101000a900460ff1681565b60006001805490508210156104cc5760018281548110151561049a57fe5b9060005260206000200160009054906101000a900473ffffffffffffffffffffffffffffffffffffffff1690506104d1565b600090505b919050565b60008060019054906101000a900473ffffffffffffffffffffffffffffffffffffffff16905090565b600060019054906101000a900473ffffffffffffffffffffffffffffffffffffffff1681565b6000600180549050905090565b6000806000809054906101000a900460ff1615151561055057600080fd5b3361055961067e565b808273ffffffffffffffffffffffffffffffffffffffff1673ffffffffffffffffffffffffffffffffffffffff168152602001915050604051809103906000f0801580156105ab573d6000803e3d6000fd5b50905060018190806001815401808255809150509060018203906000526020600020016000909192909190916101000a81548173ffffffffffffffffffffffffffffffffffffffff021916908373ffffffffffffffffffffffffffffffffffffffff160217905550507fcf7d6721918b3164d3679248fb2d841009588e2d7dde6361beceade182a24f4081604051808273ffffffffffffffffffffffffffffffffffffffff1673ffffffffffffffffffffffffffffffffffffffff16815260200191505060405180910390a18091505090565b6040516118a98061068f833901905600608060405234801561001057600080fd5b506040516020806118a983398101806040528101908080519060200190929190505050806000806101000a81548173ffffffffffffffffffffffffffffffffffffffff021916908373ffffffffffffffffffffffffffffffffffffffff1602179055506028600360006101000a81548160ff021916908360ff1602179055507f09f86d61eb5d6904c1fa8e5f071f171ec90eccc6e0a7b61d563a7d693db815f660008060009054906101000a900473ffffffffffffffffffffffffffffffffffffffff16604051808373ffffffffffffffffffffffffffffffffffffffff1681526020018273ffffffffffffffffffffffffffffffffffffffff1673ffffffffffffffffffffffffffffffffffffffff1681526020019250505060405180910390a150611767806101426000396000f3006080604052600436106100fc576000357c0100000000000000000000000000000000000000000000000000000000900463ffffffff16806307cd2589146101735780631221c811146101a25780631f2be9c9146101cf578063215238ac1461020057806343ff4564146102905780634af1c8a9146102cb578063521568bd146102fc5780635d6eb6ad146103275780636c49286e1461037457806383894548146103f9578063893d20e814610450578063897fbabf146104a75780638da5cb5b14610537578063a60f7a381461058e578063b17fd105146105f3578063c7f7bd1d1461064a578063cb7c86b214610699578063ea46193e146106a3575b60008036905014151561010e57600080fd5b7fbf1867699ca82c037f48dd4280d187dc55f63fff3103b818cfcf938891ec9b1d33604051808273ffffffffffffffffffffffffffffffffffffffff1673ffffffffffffffffffffffffffffffffffffffff16815260200191505060405180910390a1005b34801561017f57600080fd5b506101886106ce565b604051808215151515815260200191505060405180910390f35b3480156101ae57600080fd5b506101cd600480360381019080803590602001909291905050506106e1565b005b3480156101db57600080fd5b506101e461085d565b604051808260ff1660ff16815260200191505060405180910390f35b34801561020c57600080fd5b50610215610870565b6040518080602001828103825283818151815260200191508051906020019080838360005b8381101561025557808201518184015260208101905061023a565b50505050905090810190601f1680156102825780820380516001836020036101000a031916815260200191505b509250505060405180910390f35b34801561029c57600080fd5b506102c960048036038101908080359060200190820180359060200191909192939192939050505061090e565b005b3480156102d757600080fd5b506102e061097f565b604051808260ff1660ff16815260200191505060405180910390f35b34801561030857600080fd5b50610311610996565b6040518082815260200191505060405180910390f35b34801561033357600080fd5b50610372600480360381019080803573ffffffffffffffffffffffffffffffffffffffff16906020019092919080359060200190929190505050610a0c565b005b34801561038057600080fd5b506103df600480360381019080803573ffffffffffffffffffffffffffffffffffffffff169060200190929190803573ffffffffffffffffffffffffffffffffffffffff16906020019092919080359060200190929190505050610bbe565b604051808215151515815260200191505060405180910390f35b34801561040557600080fd5b5061043a600480360381019080803573ffffffffffffffffffffffffffffffffffffffff169060200190929190505050610db6565b6040518082815260200191505060405180910390f35b34801561045c57600080fd5b50610465610e95565b604051808273ffffffffffffffffffffffffffffffffffffffff1673ffffffffffffffffffffffffffffffffffffffff16815260200191505060405180910390f35b3480156104b357600080fd5b506104bc610ebe565b6040518080602001828103825283818151815260200191508051906020019080838360005b838110156104fc5780820151818401526020810190506104e1565b50505050905090810190601f1680156105295780820380516001836020036101000a031916815260200191505b509250505060405180910390f35b34801561054357600080fd5b5061054c610f60565b604051808273ffffffffffffffffffffffffffffffffffffffff1673ffffffffffffffffffffffffffffffffffffffff16815260200191505060405180910390f35b34801561059a57600080fd5b506105d9600480360381019080803573ffffffffffffffffffffffffffffffffffffffff16906020019092919080359060200190929190505050610f85565b604051808215151515815260200191505060405180910390f35b3480156105ff57600080fd5b5061064860048036038101908080356fffffffffffffffffffffffffffffffff1690602001909291908035906020019082018035906020019190919293919293905050506111be565b005b34801561065657600080fd5b5061065f61133b565b60405180826fffffffffffffffffffffffffffffffff166fffffffffffffffffffffffffffffffff16815260200191505060405180910390f35b6106a161135d565b005b3480156106af57600080fd5b506106b8611677565b6040518082815260200191505060405180910390f35b600160109054906101000a900460ff1681565b6000809054906101000a900473ffffffffffffffffffffffffffffffffffffffff1673ffffffffffffffffffffffffffffffffffffffff163373ffffffffffffffffffffffffffffffffffffffff1614151561073c57600080fd5b803073ffffffffffffffffffffffffffffffffffffffff16311015151561076257600080fd5b600115157faac3f38d160a370c9036e0523257f13f774eb02a325abb4d94f4892409fe07836000809054906101000a900473ffffffffffffffffffffffffffffffffffffffff1683604051808373ffffffffffffffffffffffffffffffffffffffff1673ffffffffffffffffffffffffffffffffffffffff1681526020018281526020019250505060405180910390a26000809054906101000a900473ffffffffffffffffffffffffffffffffffffffff1673ffffffffffffffffffffffffffffffffffffffff166108fc829081150290604051600060405180830381858888f19350505050158015610859573d6000803e3d6000fd5b5050565b600360009054906101000a900460ff1681565b60028054600181600116156101000203166002900480601f0160208091040260200160405190810160405280929190818152602001828054600181600116156101000203166002900480156109065780601f106108db57610100808354040283529160200191610906565b820191906000526020600020905b8154815290600101906020018083116108e957829003601f168201915b505050505081565b6000809054906101000a900473ffffffffffffffffffffffffffffffffffffffff1673ffffffffffffffffffffffffffffffffffffffff163373ffffffffffffffffffffffffffffffffffffffff1614151561096957600080fd5b81816002919061097a929190611696565b505050565b6000600360009054906101000a900460ff16905090565b6000600160109054906101000a900460ff16156109e557600160009054906101000a90046fffffffffffffffffffffffffffffffff166fffffffffffffffffffffffffffffffff169050610a09565b7fffffffffffffffffffffffffffffffffffffffffffffffffffffffffffffffff90505b90565b6000809054906101000a900473ffffffffffffffffffffffffffffffffffffffff1673ffffffffffffffffffffffffffffffffffffffff163373ffffffffffffffffffffffffffffffffffffffff16141515610a6757600080fd5b600073ffffffffffffffffffffffffffffffffffffffff168273ffffffffffffffffffffffffffffffffffffffff1614151515610aa357600080fd5b3073ffffffffffffffffffffffffffffffffffffffff168273ffffffffffffffffffffffffffffffffffffffff1614151515610ade57600080fd5b803073ffffffffffffffffffffffffffffffffffffffff163110151515610b0457600080fd5b600015157faac3f38d160a370c9036e0523257f13f774eb02a325abb4d94f4892409fe07838383604051808373ffffffffffffffffffffffffffffffffffffffff1673ffffffffffffffffffffffffffffffffffffffff1681526020018281526020019250505060405180910390a28173ffffffffffffffffffffffffffffffffffffffff166108fc829081150290604051600060405180830381858888f19350505050158015610bb9573d6000803e3d6000fd5b505050565b6000806000809054906101000a900473ffffffffffffffffffffffffffffffffffffffff1673ffffffffffffffffffffffffffffffffffffffff163373ffffffffffffffffffffffffffffffffffffffff16141515610c1c57600080fd5b8473ffffffffffffffffffffffffffffffffffffffff1663a9059cbb85856040518363ffffffff167c0100000000000000000000000000000000000000000000000000000000028152600401808373ffffffffffffffffffffffffffffffffffffffff1673ffffffffffffffffffffffffffffffffffffffff16815260200182815260200192505050602060405180830381600087803b158015610cbf57600080fd5b505af1158015610cd3573d6000803e3d6000fd5b505050506040513d6020811015610ce957600080fd5b81019080805190602001909291905050509050600015157faeceea4a0cf1f3d21fe26bb8ba350edc1eadf24df06e0166857a4127b65aad0a86868685604051808573ffffffffffffffffffffffffffffffffffffffff1673ffffffffffffffffffffffffffffffffffffffff1681526020018473ffffffffffffffffffffffffffffffffffffffff1673ffffffffffffffffffffffffffffffffffffffff1681526020018381526020018215151515815260200194505050505060405180910390a2809150509392505050565b60008173ffffffffffffffffffffffffffffffffffffffff16639b96eece306040518263ffffffff167c0100000000000000000000000000000000000000000000000000000000028152600401808273ffffffffffffffffffffffffffffffffffffffff1673ffffffffffffffffffffffffffffffffffffffff168152602001915050602060405180830381600087803b158015610e5357600080fd5b505af1158015610e67573d6000803e3d6000fd5b505050506040513d6020811015610e7d57600080fd5b81019080805190602001909291905050509050919050565b60008060009054906101000a900473ffffffffffffffffffffffffffffffffffffffff16905090565b606060028054600181600116156101000203166002900480601f016020809104026020016040519081016040528092919081815260200182805460018160011615610100020316600290048015610f565780601f10610f2b57610100808354040283529160200191610f56565b820191906000526020600020905b815481529060010190602001808311610f3957829003601f168201915b5050505050905090565b6000809054906101000a900473ffffffffffffffffffffffffffffffffffffffff1681565b6000806000809054906101000a900473ffffffffffffffffffffffffffffffffffffffff1673ffffffffffffffffffffffffffffffffffffffff163373ffffffffffffffffffffffffffffffffffffffff16141515610fe357600080fd5b8373ffffffffffffffffffffffffffffffffffffffff1663a9059cbb6000809054906101000a900473ffffffffffffffffffffffffffffffffffffffff16856040518363ffffffff167c0100000000000000000000000000000000000000000000000000000000028152600401808373ffffffffffffffffffffffffffffffffffffffff1673ffffffffffffffffffffffffffffffffffffffff16815260200182815260200192505050602060405180830381600087803b1580156110a757600080fd5b505af11580156110bb573d6000803e3d6000fd5b505050506040513d60208110156110d157600080fd5b81019080805190602001909291905050509050600115157faeceea4a0cf1f3d21fe26bb8ba350edc1eadf24df06e0166857a4127b65aad0a856000809054906101000a900473ffffffffffffffffffffffffffffffffffffffff168685604051808573ffffffffffffffffffffffffffffffffffffffff1673ffffffffffffffffffffffffffffffffffffffff1681526020018473ffffffffffffffffffffffffffffffffffffffff1673ffffffffffffffffffffffffffffffffffffffff1681526020018381526020018215151515815260200194505050505060405180910390a28091505092915050565b6000809054906101000a900473ffffffffffffffffffffffffffffffffffffffff1673ffffffffffffffffffffffffffffffffffffffff163373ffffffffffffffffffffffffffffffffffffffff1614151561121957600080fd5b60018060106101000a81548160ff02191690831515021790555082600160006101000a8154816fffffffffffffffffffffffffffffffff02191690836fffffffffffffffffffffffffffffffff16021790555081816002919061127d929190611696565b507fe49eb4b758b4cf05f8be0e4fe524b59a5167d2778884883b4815b2ac3860959c6000809054906101000a900473ffffffffffffffffffffffffffffffffffffffff1630604051808373ffffffffffffffffffffffffffffffffffffffff1673ffffffffffffffffffffffffffffffffffffffff1681526020018273ffffffffffffffffffffffffffffffffffffffff1673ffffffffffffffffffffffffffffffffffffffff1681526020019250505060405180910390a1505050565b600160009054906101000a90046fffffffffffffffffffffffffffffffff1681565b60008060008060011515600160109054906101000a900460ff16151514151561138557600080fd5b600160009054906101000a90046fffffffffffffffffffffffffffffffff166fffffffffffffffffffffffffffffffff1634101515156113c457600080fd5b6000809054906101000a900473ffffffffffffffffffffffffffffffffffffffff169350336000806101000a81548173ffffffffffffffffffffffffffffffffffffffff021916908373ffffffffffffffffffffffffffffffffffffffff1602179055507f09f86d61eb5d6904c1fa8e5f071f171ec90eccc6e0a7b61d563a7d693db815f6846000809054906101000a900473ffffffffffffffffffffffffffffffffffffffff16604051808373ffffffffffffffffffffffffffffffffffffffff1673ffffffffffffffffffffffffffffffffffffffff1681526020018273ffffffffffffffffffffffffffffffffffffffff1673ffffffffffffffffffffffffffffffffffffffff1681526020019250505060405180910390a16000600160106101000a81548160ff02191690831515021790555073e4aaa0fc768fbbafaa15f3cf16530b1d082a95b09250600360009054906101000a900460ff1660ff16600160009054906101000a90046fffffffffffffffffffffffffffffffff166fffffffffffffffffffffffffffffffff1681151561155f57fe5b04915081600160009054906101000a90046fffffffffffffffffffffffffffffffff160390506000600160006101000a8154816fffffffffffffffffffffffffffffffff02191690836fffffffffffffffffffffffffffffffff1602179055508273ffffffffffffffffffffffffffffffffffffffff166108fc836fffffffffffffffffffffffffffffffff169081150290604051600060405180830381858888f19350505050158015611617573d6000803e3d6000fd5b508373ffffffffffffffffffffffffffffffffffffffff166108fc826fffffffffffffffffffffffffffffffff169081150290604051600060405180830381858888f19350505050158015611670573d6000803e3d6000fd5b5050505050565b60003073ffffffffffffffffffffffffffffffffffffffff1631905090565b828054600181600116156101000203166002900490600052602060002090601f016020900481019282601f106116d757803560ff1916838001178555611705565b82800160010185558215611705579182015b828111156117045782358255916020019190600101906116e9565b5b5090506117129190611716565b5090565b61173891905b8082111561173457600081600090555060010161171c565b5090565b905600a165627a7a7230582088ef3ad389faefccafa74ba21a976dce307485d733e6ac9890bba101adee98e60029a165627a7a72305820bc39a511f2322add55449d23dd062b4ff7dd462696bf22bd1537e5ff5445cdb90029",
  "source": "pragma solidity ^0.4.23;\r\n\r\nimport \"./TradeableContract.sol\";\r\nimport \"./ITradeableContract.sol\";\r\n\r\n/**\r\n * @title ContractCreator.\r\n * @dev Creator of Tradeable Wallet contracts. It is also a repository of Tradeable Wallet addresses.\r\n */\r\ncontract ContractCreator {\r\n\r\n  /**\r\n   * @dev Stores the information if the some functions should be paused in case of some undesirable situation (circuit breaker).   \r\n   */\r\n\tbool public stopped = false;\r\n\t\r\n  /**\r\n   * @dev Owner of this contract.   \r\n   */\r\n\taddress public owner;\t\r\n\r\n  /**\r\n   * @dev Stores all contracts already created.\r\n   */\r\n\taddress[] public contracts;\r\n \r\n  /**\r\n   * @dev Event to inform the creation of a new Tradeable  Wallet   \r\n   */ \r\n \tevent NewTradeableWallet(address addr);\r\n\r\n  /**\r\n   * @dev Assure that only the owner can invoke a function.   \r\n   */\r\n\tmodifier onlyOwner { \r\n\t\trequire(msg.sender == owner); \t\r\n\t\t_; \t\r\n\t}\t\t\r\n\t\r\n  /**\r\n   * @dev Safe mechanism check and pause the function in case of some undesirable situation (circuit breaker).   \r\n   */\r\n\tmodifier stopInEmergency { \r\n\t\trequire(!stopped); \r\n\t\t_; \r\n\t}\r\n\r\n  /**\r\n   * @dev Create a new contract. \r\n   * The owner is going to be msg.sender.   \r\n   */\r\n\tconstructor () public {\r\n\t\towner = msg.sender;\r\n\t}\r\n\r\n  /**\r\n   * @dev Kill the contract creator.\r\n   * It can only be called by the owner.   \r\n   */\r\n\tfunction kill() public onlyOwner {\r\n\t\tselfdestruct(owner);\r\n\t}\r\n\r\n  /**\r\n   * @dev create a new Tradeable Contract, stores its reference and emit an event with the same info \r\n   * @return subcontractAddr the address of the create contract.\r\n   */\r\n\tfunction createTradeableContract() public stopInEmergency returns(address subcontractAddr) {\r\n\t\tITradeableContract tc = new TradeableContract(msg.sender); \r\n\t\tcontracts.push(tc);\r\n\t\temit NewTradeableWallet(address(tc));\r\n\t\treturn tc;\t\t\r\n\t}\r\n\r\n  /**\r\n   * @dev Useful to enable a pause in the creation of new Tradeable Contracts. \r\n   * It can only be called by the owner.\r\n   * @param b If true, it is not possible to create new Tradeable Contracts.\r\n   */\r\n\tfunction setCircuitBreaker (bool b) public onlyOwner {\r\n\t\tstopped = b;\r\n\t} \t\r\n\r\n  /**\r\n   * @dev Returns the number of Tradeable Contract created. \r\n   * @return contractCount the number of Tradeable Contract created.\r\n   */\r\n\tfunction getContractCount() public view returns(uint contractCount) {\r\n\t\treturn contracts.length;\r\n\t}\r\n\r\n  /**\r\n   * @dev Returns the address the Tradeable Contract created on a specific index. \r\n   * @param index index of the desirable result\r\n   * @return the address of the desirable Tradeable contract or 0x0 (if not found)\r\n   */\r\n\tfunction getContractAt(uint index) public view returns (address) {\r\n\t\tif (index<contracts.length) {\r\n\t\t\treturn contracts[index];\r\n\t\t}\r\n\t\treturn 0x0;\r\n\t}\r\n\r\n  /**\r\n   * @dev Returns the owner of this contract.\r\n   * @return the owner of this contract.\r\n   */\r\n\tfunction getOwner() public view returns (address) {\r\n\t\treturn owner;\r\n\t}\r\n\r\n}",
  "sourcePath": "C:\\workspace\\tradeable-wallet\\back-blockchain\\contracts\\ContractCreator.sol",
  "compiler": {
    "name": "solc",
    "version": "0.4.24+commit.e67f0147.Emscripten.clang"
  },
  "schemaVersion": "2.0.1",
  "updatedAt": "2018-08-27T19:49:20.366Z"
}