{
  "contractName": "ContractCreator",
  "abi": [
    {
      "constant": true,
      "inputs": [
        {
          "name": "",
          "type": "uint256"
        }
      ],
      "name": "contracts",
      "outputs": [
        {
          "name": "",
          "type": "address"
        }
      ],
      "payable": false,
      "stateMutability": "view",
      "type": "function"
    },
    {
      "constant": true,
      "inputs": [],
      "name": "stopped",
      "outputs": [
        {
          "name": "",
          "type": "bool"
        }
      ],
      "payable": false,
      "stateMutability": "view",
      "type": "function"
    },
    {
      "constant": true,
      "inputs": [],
      "name": "owner",
      "outputs": [
        {
          "name": "",
          "type": "address"
        }
      ],
      "payable": false,
      "stateMutability": "view",
      "type": "function"
    },
    {
      "inputs": [],
      "payable": false,
      "stateMutability": "nonpayable",
      "type": "constructor"
    },
    {
      "anonymous": false,
      "inputs": [
        {
          "indexed": false,
          "name": "addr",
          "type": "address"
        }
      ],
      "name": "NewTradeableWallet",
      "type": "event"
    },
    {
      "constant": false,
      "inputs": [],
      "name": "createTradeableContract",
      "outputs": [
        {
          "name": "subcontractAddr",
          "type": "address"
        }
      ],
      "payable": false,
      "stateMutability": "nonpayable",
      "type": "function"
    },
    {
      "constant": false,
      "inputs": [
        {
          "name": "b",
          "type": "bool"
        }
      ],
      "name": "setCircuitBreaker",
      "outputs": [],
      "payable": false,
      "stateMutability": "nonpayable",
      "type": "function"
    },
    {
      "constant": true,
      "inputs": [],
      "name": "getContractCount",
      "outputs": [
        {
          "name": "contractCount",
          "type": "uint256"
        }
      ],
      "payable": false,
      "stateMutability": "view",
      "type": "function"
    },
    {
      "constant": true,
      "inputs": [
        {
          "name": "index",
          "type": "uint256"
        }
      ],
      "name": "getContractAt",
      "outputs": [
        {
          "name": "",
          "type": "address"
        }
      ],
      "payable": false,
      "stateMutability": "view",
      "type": "function"
    },
    {
      "constant": true,
      "inputs": [],
      "name": "getOwner",
      "outputs": [
        {
          "name": "",
          "type": "address"
        }
      ],
      "payable": false,
      "stateMutability": "view",
      "type": "function"
    }
  ],
  "bytecode": "0x608060405260008060006101000a81548160ff02191690831515021790555034801561002a57600080fd5b5033600060016101000a81548173ffffffffffffffffffffffffffffffffffffffff021916908373ffffffffffffffffffffffffffffffffffffffff1602179055506117538061007b6000396000f30060806040526004361061008e576000357c0100000000000000000000000000000000000000000000000000000000900463ffffffff1680634250644914610093578063474da79a146100c257806375f12b211461012f57806379b0676b1461015e578063893d20e8146101cb5780638da5cb5b146102225780639399869d14610279578063b5e751df146102a4575b600080fd5b34801561009f57600080fd5b506100c06004803603810190808035151590602001909291905050506102fb565b005b3480156100ce57600080fd5b506100ed60048036038101908080359060200190929190505050610373565b604051808273ffffffffffffffffffffffffffffffffffffffff1673ffffffffffffffffffffffffffffffffffffffff16815260200191505060405180910390f35b34801561013b57600080fd5b506101446103b1565b604051808215151515815260200191505060405180910390f35b34801561016a57600080fd5b50610189600480360381019080803590602001909291905050506103c3565b604051808273ffffffffffffffffffffffffffffffffffffffff1673ffffffffffffffffffffffffffffffffffffffff16815260200191505060405180910390f35b3480156101d757600080fd5b506101e061041d565b604051808273ffffffffffffffffffffffffffffffffffffffff1673ffffffffffffffffffffffffffffffffffffffff16815260200191505060405180910390f35b34801561022e57600080fd5b50610237610446565b604051808273ffffffffffffffffffffffffffffffffffffffff1673ffffffffffffffffffffffffffffffffffffffff16815260200191505060405180910390f35b34801561028557600080fd5b5061028e61046c565b6040518082815260200191505060405180910390f35b3480156102b057600080fd5b506102b9610479565b604051808273ffffffffffffffffffffffffffffffffffffffff1673ffffffffffffffffffffffffffffffffffffffff16815260200191505060405180910390f35b600060019054906101000a900473ffffffffffffffffffffffffffffffffffffffff1673ffffffffffffffffffffffffffffffffffffffff163373ffffffffffffffffffffffffffffffffffffffff1614151561035757600080fd5b806000806101000a81548160ff02191690831515021790555050565b60018181548110151561038257fe5b906000526020600020016000915054906101000a900473ffffffffffffffffffffffffffffffffffffffff1681565b6000809054906101000a900460ff1681565b6000600180549050821015610413576001828154811015156103e157fe5b9060005260206000200160009054906101000a900473ffffffffffffffffffffffffffffffffffffffff169050610418565b600090505b919050565b60008060019054906101000a900473ffffffffffffffffffffffffffffffffffffffff16905090565b600060019054906101000a900473ffffffffffffffffffffffffffffffffffffffff1681565b6000600180549050905090565b6000806000809054906101000a900460ff1615151561049757600080fd5b336104a06105c5565b808273ffffffffffffffffffffffffffffffffffffffff1673ffffffffffffffffffffffffffffffffffffffff168152602001915050604051809103906000f0801580156104f2573d6000803e3d6000fd5b50905060018190806001815401808255809150509060018203906000526020600020016000909192909190916101000a81548173ffffffffffffffffffffffffffffffffffffffff021916908373ffffffffffffffffffffffffffffffffffffffff160217905550507fcf7d6721918b3164d3679248fb2d841009588e2d7dde6361beceade182a24f4081604051808273ffffffffffffffffffffffffffffffffffffffff1673ffffffffffffffffffffffffffffffffffffffff16815260200191505060405180910390a18091505090565b604051611152806105d6833901905600608060405234801561001057600080fd5b5060405160208061115283398101806040528101908080519060200190929190505050806000806101000a81548173ffffffffffffffffffffffffffffffffffffffff021916908373ffffffffffffffffffffffffffffffffffffffff1602179055506028600360006101000a81548160ff021916908360ff1602179055507f09f86d61eb5d6904c1fa8e5f071f171ec90eccc6e0a7b61d563a7d693db815f660008060009054906101000a900473ffffffffffffffffffffffffffffffffffffffff16604051808373ffffffffffffffffffffffffffffffffffffffff1681526020018273ffffffffffffffffffffffffffffffffffffffff1673ffffffffffffffffffffffffffffffffffffffff1681526020019250505060405180910390a150611010806101426000396000f3006080604052600436106100d0576000357c0100000000000000000000000000000000000000000000000000000000900463ffffffff16806307cd2589146100d25780631f2be9c914610101578063215238ac1461013257806343ff4564146101c25780634af1c8a9146101fd578063521568bd1461022e578063893d20e814610259578063897fbabf146102b05780638da5cb5b146103405780639f727c2714610397578063a60f7a38146103ae578063b17fd10514610413578063c7f7bd1d1461046a578063cb7c86b2146104b9575b005b3480156100de57600080fd5b506100e76104c3565b604051808215151515815260200191505060405180910390f35b34801561010d57600080fd5b506101166104d6565b604051808260ff1660ff16815260200191505060405180910390f35b34801561013e57600080fd5b506101476104e9565b6040518080602001828103825283818151815260200191508051906020019080838360005b8381101561018757808201518184015260208101905061016c565b50505050905090810190601f1680156101b45780820380516001836020036101000a031916815260200191505b509250505060405180910390f35b3480156101ce57600080fd5b506101fb600480360381019080803590602001908201803590602001919091929391929390505050610587565b005b34801561020957600080fd5b506102126105f8565b604051808260ff1660ff16815260200191505060405180910390f35b34801561023a57600080fd5b5061024361060f565b6040518082815260200191505060405180910390f35b34801561026557600080fd5b5061026e610685565b604051808273ffffffffffffffffffffffffffffffffffffffff1673ffffffffffffffffffffffffffffffffffffffff16815260200191505060405180910390f35b3480156102bc57600080fd5b506102c56106ae565b6040518080602001828103825283818151815260200191508051906020019080838360005b838110156103055780820151818401526020810190506102ea565b50505050905090810190601f1680156103325780820380516001836020036101000a031916815260200191505b509250505060405180910390f35b34801561034c57600080fd5b50610355610750565b604051808273ffffffffffffffffffffffffffffffffffffffff1673ffffffffffffffffffffffffffffffffffffffff16815260200191505060405180910390f35b3480156103a357600080fd5b506103ac610775565b005b3480156103ba57600080fd5b506103f9600480360381019080803573ffffffffffffffffffffffffffffffffffffffff16906020019092919080359060200190929190505050610851565b604051808215151515815260200191505060405180910390f35b34801561041f57600080fd5b5061046860048036038101908080356fffffffffffffffffffffffffffffffff169060200190929190803590602001908201803590602001919091929391929390505050610a86565b005b34801561047657600080fd5b5061047f610c03565b60405180826fffffffffffffffffffffffffffffffff166fffffffffffffffffffffffffffffffff16815260200191505060405180910390f35b6104c1610c25565b005b600160109054906101000a900460ff1681565b600360009054906101000a900460ff1681565b60028054600181600116156101000203166002900480601f01602080910402602001604051908101604052809291908181526020018280546001816001161561010002031660029004801561057f5780601f106105545761010080835404028352916020019161057f565b820191906000526020600020905b81548152906001019060200180831161056257829003601f168201915b505050505081565b6000809054906101000a900473ffffffffffffffffffffffffffffffffffffffff1673ffffffffffffffffffffffffffffffffffffffff163373ffffffffffffffffffffffffffffffffffffffff161415156105e257600080fd5b8181600291906105f3929190610f3f565b505050565b6000600360009054906101000a900460ff16905090565b6000600160109054906101000a900460ff161561065e57600160009054906101000a90046fffffffffffffffffffffffffffffffff166fffffffffffffffffffffffffffffffff169050610682565b7fffffffffffffffffffffffffffffffffffffffffffffffffffffffffffffffff90505b90565b60008060009054906101000a900473ffffffffffffffffffffffffffffffffffffffff16905090565b606060028054600181600116156101000203166002900480601f0160208091040260200160405190810160405280929190818152602001828054600181600116156101000203166002900480156107465780601f1061071b57610100808354040283529160200191610746565b820191906000526020600020905b81548152906001019060200180831161072957829003601f168201915b5050505050905090565b6000809054906101000a900473ffffffffffffffffffffffffffffffffffffffff1681565b6000809054906101000a900473ffffffffffffffffffffffffffffffffffffffff1673ffffffffffffffffffffffffffffffffffffffff163373ffffffffffffffffffffffffffffffffffffffff161415156107d057600080fd5b6000809054906101000a900473ffffffffffffffffffffffffffffffffffffffff1673ffffffffffffffffffffffffffffffffffffffff166108fc3073ffffffffffffffffffffffffffffffffffffffff16319081150290604051600060405180830381858888f1935050505015801561084e573d6000803e3d6000fd5b50565b6000806000809054906101000a900473ffffffffffffffffffffffffffffffffffffffff1673ffffffffffffffffffffffffffffffffffffffff163373ffffffffffffffffffffffffffffffffffffffff161415156108af57600080fd5b8373ffffffffffffffffffffffffffffffffffffffff1663a9059cbb6000809054906101000a900473ffffffffffffffffffffffffffffffffffffffff16856040518363ffffffff167c0100000000000000000000000000000000000000000000000000000000028152600401808373ffffffffffffffffffffffffffffffffffffffff1673ffffffffffffffffffffffffffffffffffffffff16815260200182815260200192505050602060405180830381600087803b15801561097357600080fd5b505af1158015610987573d6000803e3d6000fd5b505050506040513d602081101561099d57600080fd5b810190808051906020019092919050505090507f68b333934bebe88f9d460d709b614c41d6feeafe7585c524b441166d7856716c846000809054906101000a900473ffffffffffffffffffffffffffffffffffffffff168584604051808573ffffffffffffffffffffffffffffffffffffffff1673ffffffffffffffffffffffffffffffffffffffff1681526020018473ffffffffffffffffffffffffffffffffffffffff1673ffffffffffffffffffffffffffffffffffffffff1681526020018381526020018215151515815260200194505050505060405180910390a18091505092915050565b6000809054906101000a900473ffffffffffffffffffffffffffffffffffffffff1673ffffffffffffffffffffffffffffffffffffffff163373ffffffffffffffffffffffffffffffffffffffff16141515610ae157600080fd5b60018060106101000a81548160ff02191690831515021790555082600160006101000a8154816fffffffffffffffffffffffffffffffff02191690836fffffffffffffffffffffffffffffffff160217905550818160029190610b45929190610f3f565b507fe49eb4b758b4cf05f8be0e4fe524b59a5167d2778884883b4815b2ac3860959c6000809054906101000a900473ffffffffffffffffffffffffffffffffffffffff1630604051808373ffffffffffffffffffffffffffffffffffffffff1673ffffffffffffffffffffffffffffffffffffffff1681526020018273ffffffffffffffffffffffffffffffffffffffff1673ffffffffffffffffffffffffffffffffffffffff1681526020019250505060405180910390a1505050565b600160009054906101000a90046fffffffffffffffffffffffffffffffff1681565b60008060008060011515600160109054906101000a900460ff161515141515610c4d57600080fd5b600160009054906101000a90046fffffffffffffffffffffffffffffffff166fffffffffffffffffffffffffffffffff163410151515610c8c57600080fd5b6000809054906101000a900473ffffffffffffffffffffffffffffffffffffffff169350336000806101000a81548173ffffffffffffffffffffffffffffffffffffffff021916908373ffffffffffffffffffffffffffffffffffffffff1602179055507f09f86d61eb5d6904c1fa8e5f071f171ec90eccc6e0a7b61d563a7d693db815f6846000809054906101000a900473ffffffffffffffffffffffffffffffffffffffff16604051808373ffffffffffffffffffffffffffffffffffffffff1673ffffffffffffffffffffffffffffffffffffffff1681526020018273ffffffffffffffffffffffffffffffffffffffff1673ffffffffffffffffffffffffffffffffffffffff1681526020019250505060405180910390a16000600160106101000a81548160ff02191690831515021790555073e4aaa0fc768fbbafaa15f3cf16530b1d082a95b09250600360009054906101000a900460ff1660ff16600160009054906101000a90046fffffffffffffffffffffffffffffffff166fffffffffffffffffffffffffffffffff16811515610e2757fe5b04915081600160009054906101000a90046fffffffffffffffffffffffffffffffff160390506000600160006101000a8154816fffffffffffffffffffffffffffffffff02191690836fffffffffffffffffffffffffffffffff1602179055508273ffffffffffffffffffffffffffffffffffffffff166108fc836fffffffffffffffffffffffffffffffff169081150290604051600060405180830381858888f19350505050158015610edf573d6000803e3d6000fd5b508373ffffffffffffffffffffffffffffffffffffffff166108fc826fffffffffffffffffffffffffffffffff169081150290604051600060405180830381858888f19350505050158015610f38573d6000803e3d6000fd5b5050505050565b828054600181600116156101000203166002900490600052602060002090601f016020900481019282601f10610f8057803560ff1916838001178555610fae565b82800160010185558215610fae579182015b82811115610fad578235825591602001919060010190610f92565b5b509050610fbb9190610fbf565b5090565b610fe191905b80821115610fdd576000816000905550600101610fc5565b5090565b905600a165627a7a72305820a829189989a4f628325f95ca5ed2d524d878a91dcc0678a7677769df13d8e20d0029a165627a7a7230582073f3837b752248c93438b4802b03aeb8534023f4d6801bd69d6dc651baca25e70029",
  "source": "pragma solidity ^0.4.23;\r\n\r\nimport \"./TradeableContract.sol\";\r\nimport \"./ITradeableContract.sol\";\r\n\r\n/**\r\n * @title ContractCreator.\r\n * @dev Creator of Tradeable Wallet contracts. It is also a repository of Tradeable Wallet addresses.\r\n */\r\ncontract ContractCreator {\r\n\r\n  /**\r\n   * @dev Stores the information if the some functions should be paused in case of some undesirable situation (circuit breaker).   \r\n   */\r\n\tbool public stopped = false;\r\n\t\r\n  /**\r\n   * @dev Owner of this contract.   \r\n   */\r\n\taddress public owner;\t\r\n\r\n  /**\r\n   * @dev Stores all contracts already created.\r\n   */\r\n\taddress[] public contracts;\r\n \r\n  /**\r\n   * @dev Event to inform the creation of a new Tradeable  Wallet   \r\n   */ \r\n \tevent NewTradeableWallet(address addr);\r\n\r\n  /**\r\n   * @dev Assure that only the owner can invoke a function.   \r\n   */\r\n\tmodifier onlyOwner { \r\n\t\trequire(msg.sender == owner); \t\r\n\t\t_; \t\r\n\t}\t\t\r\n\t\r\n  /**\r\n   * @dev Safe mechanism check and pause the function in case of some undesirable situation (circuit breaker).   \r\n   */\r\n\tmodifier stopInEmergency { \r\n\t\trequire(!stopped); \r\n\t\t_; \r\n\t}\r\n\r\n  /**\r\n   * @dev Create a new contract. \r\n   * The owner is going to be msg.sender.   \r\n   */\r\n\tconstructor () public {\r\n\t\towner = msg.sender;\r\n\t}\r\n\r\n  /**\r\n   * @dev create a new Tradeable Contract, stores its reference and emit an event with the same info \r\n   * @return subcontractAddr the address of the create contract.\r\n   */\r\n\tfunction createTradeableContract() public stopInEmergency returns(address subcontractAddr) {\r\n\t\tITradeableContract tc = new TradeableContract(msg.sender); \r\n\t\tcontracts.push(tc);\r\n\t\temit NewTradeableWallet(address(tc));\r\n\t\treturn tc;\t\t\r\n\t}\r\n\r\n  /**\r\n   * @dev Useful to enable a pause in the creation of new Tradeable Contracts. \r\n   * It can only be called by the owner.\r\n   * @param b If true, it is not possible to create new Tradeable Contracts.\r\n   */\r\n\tfunction setCircuitBreaker (bool b) public onlyOwner {\r\n\t\tstopped = b;\r\n\t} \t\r\n\r\n  /**\r\n   * @dev Returns the number of Tradeable Contract created. \r\n   * @return contractCount the number of Tradeable Contract created.\r\n   */\r\n\tfunction getContractCount() public view returns(uint contractCount) {\r\n\t\treturn contracts.length;\r\n\t}\r\n\r\n  /**\r\n   * @dev Returns the address the Tradeable Contract created on a specific index. \r\n   * @param index index of the desirable result\r\n   * @return the address of the desirable Tradeable contract or 0x0 (if not found)\r\n   */\r\n\tfunction getContractAt(uint index) public view returns (address) {\r\n\t\tif (index<contracts.length) {\r\n\t\t\treturn contracts[index];\r\n\t\t}\r\n\t\treturn 0x0;\r\n\t}\r\n\r\n  /**\r\n   * @dev Returns the owner of this contract.\r\n   * @return the owner of this contract.\r\n   */\r\n\tfunction getOwner() public view returns (address) {\r\n\t\treturn owner;\r\n\t}\r\n\r\n}",
  "sourcePath": "C:\\workspace\\tradeable-wallet\\back-blockchain\\contracts\\ContractCreator.sol",
  "compiler": {
    "name": "solc",
    "version": "0.4.24+commit.e67f0147.Emscripten.clang"
  },
  "schemaVersion": "2.0.1",
  "updatedAt": "2018-08-27T02:39:26.295Z"
}