{
  "contractName": "ContractCreator",
  "abi": [
    {
      "constant": true,
      "inputs": [
        {
          "name": "",
          "type": "uint256"
        }
      ],
      "name": "contracts",
      "outputs": [
        {
          "name": "",
          "type": "address"
        }
      ],
      "payable": false,
      "stateMutability": "view",
      "type": "function"
    },
    {
      "constant": true,
      "inputs": [],
      "name": "stopped",
      "outputs": [
        {
          "name": "",
          "type": "bool"
        }
      ],
      "payable": false,
      "stateMutability": "view",
      "type": "function"
    },
    {
      "constant": true,
      "inputs": [],
      "name": "owner",
      "outputs": [
        {
          "name": "",
          "type": "address"
        }
      ],
      "payable": false,
      "stateMutability": "view",
      "type": "function"
    },
    {
      "inputs": [],
      "payable": false,
      "stateMutability": "nonpayable",
      "type": "constructor"
    },
    {
      "anonymous": false,
      "inputs": [
        {
          "indexed": false,
          "name": "addr",
          "type": "address"
        }
      ],
      "name": "NewTradeableWallet",
      "type": "event"
    },
    {
      "constant": false,
      "inputs": [],
      "name": "createTradeableContract",
      "outputs": [
        {
          "name": "subcontractAddr",
          "type": "address"
        }
      ],
      "payable": false,
      "stateMutability": "nonpayable",
      "type": "function"
    },
    {
      "constant": false,
      "inputs": [
        {
          "name": "b",
          "type": "bool"
        }
      ],
      "name": "setCircuitBreaker",
      "outputs": [],
      "payable": false,
      "stateMutability": "nonpayable",
      "type": "function"
    },
    {
      "constant": true,
      "inputs": [],
      "name": "getContractCount",
      "outputs": [
        {
          "name": "contractCount",
          "type": "uint256"
        }
      ],
      "payable": false,
      "stateMutability": "view",
      "type": "function"
    },
    {
      "constant": true,
      "inputs": [],
      "name": "getContracts",
      "outputs": [
        {
          "name": "",
          "type": "address[]"
        }
      ],
      "payable": false,
      "stateMutability": "view",
      "type": "function"
    },
    {
      "constant": true,
      "inputs": [],
      "name": "getOwner",
      "outputs": [
        {
          "name": "",
          "type": "address"
        }
      ],
      "payable": false,
      "stateMutability": "view",
      "type": "function"
    }
  ],
  "bytecode": "0x608060405260008060006101000a81548160ff02191690831515021790555034801561002a57600080fd5b5033600060016101000a81548173ffffffffffffffffffffffffffffffffffffffff021916908373ffffffffffffffffffffffffffffffffffffffff16021790555061139f8061007b6000396000f30060806040526004361061008e576000357c0100000000000000000000000000000000000000000000000000000000900463ffffffff1680634250644914610093578063474da79a146100c257806375f12b211461012f578063893d20e81461015e5780638da5cb5b146101b55780639399869d1461020c578063b5e751df14610237578063c3a2a93a1461028e575b600080fd5b34801561009f57600080fd5b506100c06004803603810190808035151590602001909291905050506102fa565b005b3480156100ce57600080fd5b506100ed60048036038101908080359060200190929190505050610372565b604051808273ffffffffffffffffffffffffffffffffffffffff1673ffffffffffffffffffffffffffffffffffffffff16815260200191505060405180910390f35b34801561013b57600080fd5b506101446103b0565b604051808215151515815260200191505060405180910390f35b34801561016a57600080fd5b506101736103c2565b604051808273ffffffffffffffffffffffffffffffffffffffff1673ffffffffffffffffffffffffffffffffffffffff16815260200191505060405180910390f35b3480156101c157600080fd5b506101ca6103eb565b604051808273ffffffffffffffffffffffffffffffffffffffff1673ffffffffffffffffffffffffffffffffffffffff16815260200191505060405180910390f35b34801561021857600080fd5b50610221610411565b6040518082815260200191505060405180910390f35b34801561024357600080fd5b5061024c61041e565b604051808273ffffffffffffffffffffffffffffffffffffffff1673ffffffffffffffffffffffffffffffffffffffff16815260200191505060405180910390f35b34801561029a57600080fd5b506102a361056a565b6040518080602001828103825283818151815260200191508051906020019060200280838360005b838110156102e65780820151818401526020810190506102cb565b505050509050019250505060405180910390f35b600060019054906101000a900473ffffffffffffffffffffffffffffffffffffffff1673ffffffffffffffffffffffffffffffffffffffff163373ffffffffffffffffffffffffffffffffffffffff1614151561035657600080fd5b806000806101000a81548160ff02191690831515021790555050565b60018181548110151561038157fe5b906000526020600020016000915054906101000a900473ffffffffffffffffffffffffffffffffffffffff1681565b6000809054906101000a900460ff1681565b60008060019054906101000a900473ffffffffffffffffffffffffffffffffffffffff16905090565b600060019054906101000a900473ffffffffffffffffffffffffffffffffffffffff1681565b6000600180549050905090565b6000806000809054906101000a900460ff1615151561043c57600080fd5b336104456105f8565b808273ffffffffffffffffffffffffffffffffffffffff1673ffffffffffffffffffffffffffffffffffffffff168152602001915050604051809103906000f080158015610497573d6000803e3d6000fd5b50905060018190806001815401808255809150509060018203906000526020600020016000909192909190916101000a81548173ffffffffffffffffffffffffffffffffffffffff021916908373ffffffffffffffffffffffffffffffffffffffff160217905550507fcf7d6721918b3164d3679248fb2d841009588e2d7dde6361beceade182a24f4081604051808273ffffffffffffffffffffffffffffffffffffffff1673ffffffffffffffffffffffffffffffffffffffff16815260200191505060405180910390a18091505090565b606060018054806020026020016040519081016040528092919081815260200182805480156105ee57602002820191906000526020600020905b8160009054906101000a900473ffffffffffffffffffffffffffffffffffffffff1673ffffffffffffffffffffffffffffffffffffffff16815260200190600101908083116105a4575b5050505050905090565b604051610d6b80610609833901905600608060405234801561001057600080fd5b50604051602080610d6b83398101806040528101908080519060200190929190505050806000806101000a81548173ffffffffffffffffffffffffffffffffffffffff021916908373ffffffffffffffffffffffffffffffffffffffff1602179055507f09f86d61eb5d6904c1fa8e5f071f171ec90eccc6e0a7b61d563a7d693db815f660008060009054906101000a900473ffffffffffffffffffffffffffffffffffffffff16604051808373ffffffffffffffffffffffffffffffffffffffff1681526020018273ffffffffffffffffffffffffffffffffffffffff1673ffffffffffffffffffffffffffffffffffffffff1681526020019250505060405180910390a150610c45806101266000396000f3006080604052600436106100a4576000357c0100000000000000000000000000000000000000000000000000000000900463ffffffff16806306b091f9146100a957806307cd25891461010e57806341c0e1b51461013d578063521568bd146101545780637c37c3ed1461017f578063893d20e8146101895780638da5cb5b146101e05780639f727c2714610237578063c7f7bd1d1461024e578063e5ed98571461029d575b600080fd5b3480156100b557600080fd5b506100f4600480360381019080803573ffffffffffffffffffffffffffffffffffffffff169060200190929190803590602001909291905050506102dc565b604051808215151515815260200191505060405180910390f35b34801561011a57600080fd5b50610123610511565b604051808215151515815260200191505060405180910390f35b34801561014957600080fd5b50610152610524565b005b34801561016057600080fd5b506101696105e5565b6040518082815260200191505060405180910390f35b61018761065b565b005b34801561019557600080fd5b5061019e610964565b604051808273ffffffffffffffffffffffffffffffffffffffff1673ffffffffffffffffffffffffffffffffffffffff16815260200191505060405180910390f35b3480156101ec57600080fd5b506101f561098d565b604051808273ffffffffffffffffffffffffffffffffffffffff1673ffffffffffffffffffffffffffffffffffffffff16815260200191505060405180910390f35b34801561024357600080fd5b5061024c6109b2565b005b34801561025a57600080fd5b50610263610a8e565b60405180826fffffffffffffffffffffffffffffffff166fffffffffffffffffffffffffffffffff16815260200191505060405180910390f35b3480156102a957600080fd5b506102da60048036038101908080356fffffffffffffffffffffffffffffffff169060200190929190505050610ab0565b005b6000806000809054906101000a900473ffffffffffffffffffffffffffffffffffffffff1673ffffffffffffffffffffffffffffffffffffffff163373ffffffffffffffffffffffffffffffffffffffff1614151561033a57600080fd5b8373ffffffffffffffffffffffffffffffffffffffff1663a9059cbb6000809054906101000a900473ffffffffffffffffffffffffffffffffffffffff16856040518363ffffffff167c0100000000000000000000000000000000000000000000000000000000028152600401808373ffffffffffffffffffffffffffffffffffffffff1673ffffffffffffffffffffffffffffffffffffffff16815260200182815260200192505050602060405180830381600087803b1580156103fe57600080fd5b505af1158015610412573d6000803e3d6000fd5b505050506040513d602081101561042857600080fd5b810190808051906020019092919050505090507f68b333934bebe88f9d460d709b614c41d6feeafe7585c524b441166d7856716c846000809054906101000a900473ffffffffffffffffffffffffffffffffffffffff168584604051808573ffffffffffffffffffffffffffffffffffffffff1673ffffffffffffffffffffffffffffffffffffffff1681526020018473ffffffffffffffffffffffffffffffffffffffff1673ffffffffffffffffffffffffffffffffffffffff1681526020018381526020018215151515815260200194505050505060405180910390a18091505092915050565b600160109054906101000a900460ff1681565b6000809054906101000a900473ffffffffffffffffffffffffffffffffffffffff1673ffffffffffffffffffffffffffffffffffffffff163373ffffffffffffffffffffffffffffffffffffffff1614151561057f57600080fd5b7f4ea0e329a2ede766e5f7cb0bbcb31a8910ab561336f5f5518ca473c225a98f5060405160405180910390a16000809054906101000a900473ffffffffffffffffffffffffffffffffffffffff1673ffffffffffffffffffffffffffffffffffffffff16ff5b6000600160109054906101000a900460ff161561063457600160009054906101000a90046fffffffffffffffffffffffffffffffff166fffffffffffffffffffffffffffffffff169050610658565b7fffffffffffffffffffffffffffffffffffffffffffffffffffffffffffffffff90505b90565b60008060008060011515600160109054906101000a900460ff16151514151561068357600080fd5b600160009054906101000a90046fffffffffffffffffffffffffffffffff166fffffffffffffffffffffffffffffffff1634101515156106c257600080fd5b6000809054906101000a900473ffffffffffffffffffffffffffffffffffffffff169350336000806101000a81548173ffffffffffffffffffffffffffffffffffffffff021916908373ffffffffffffffffffffffffffffffffffffffff1602179055507f09f86d61eb5d6904c1fa8e5f071f171ec90eccc6e0a7b61d563a7d693db815f6846000809054906101000a900473ffffffffffffffffffffffffffffffffffffffff16604051808373ffffffffffffffffffffffffffffffffffffffff1673ffffffffffffffffffffffffffffffffffffffff1681526020018273ffffffffffffffffffffffffffffffffffffffff1673ffffffffffffffffffffffffffffffffffffffff1681526020019250505060405180910390a16000600160106101000a81548160ff02191690831515021790555073627306090abab3a6e1400e9345bc60c78a8bef5792506014600160009054906101000a90046fffffffffffffffffffffffffffffffff166fffffffffffffffffffffffffffffffff1681151561084c57fe5b04915081600160009054906101000a90046fffffffffffffffffffffffffffffffff160390506000600160006101000a8154816fffffffffffffffffffffffffffffffff02191690836fffffffffffffffffffffffffffffffff1602179055508273ffffffffffffffffffffffffffffffffffffffff166108fc836fffffffffffffffffffffffffffffffff169081150290604051600060405180830381858888f19350505050158015610904573d6000803e3d6000fd5b508373ffffffffffffffffffffffffffffffffffffffff166108fc826fffffffffffffffffffffffffffffffff169081150290604051600060405180830381858888f1935050505015801561095d573d6000803e3d6000fd5b5050505050565b60008060009054906101000a900473ffffffffffffffffffffffffffffffffffffffff16905090565b6000809054906101000a900473ffffffffffffffffffffffffffffffffffffffff1681565b6000809054906101000a900473ffffffffffffffffffffffffffffffffffffffff1673ffffffffffffffffffffffffffffffffffffffff163373ffffffffffffffffffffffffffffffffffffffff16141515610a0d57600080fd5b6000809054906101000a900473ffffffffffffffffffffffffffffffffffffffff1673ffffffffffffffffffffffffffffffffffffffff166108fc3073ffffffffffffffffffffffffffffffffffffffff16319081150290604051600060405180830381858888f19350505050158015610a8b573d6000803e3d6000fd5b50565b600160009054906101000a90046fffffffffffffffffffffffffffffffff1681565b6000809054906101000a900473ffffffffffffffffffffffffffffffffffffffff1673ffffffffffffffffffffffffffffffffffffffff163373ffffffffffffffffffffffffffffffffffffffff16141515610b0b57600080fd5b60018060106101000a81548160ff02191690831515021790555080600160006101000a8154816fffffffffffffffffffffffffffffffff02191690836fffffffffffffffffffffffffffffffff1602179055507fe49eb4b758b4cf05f8be0e4fe524b59a5167d2778884883b4815b2ac3860959c6000809054906101000a900473ffffffffffffffffffffffffffffffffffffffff1630604051808373ffffffffffffffffffffffffffffffffffffffff1673ffffffffffffffffffffffffffffffffffffffff1681526020018273ffffffffffffffffffffffffffffffffffffffff1673ffffffffffffffffffffffffffffffffffffffff1681526020019250505060405180910390a1505600a165627a7a723058204e9397d3b668d93ab4220b77a1bb23aa6a3f65d61c257e8dddc171dd47022f310029a165627a7a72305820ee285d202d48f073ac03d3333fc0ac6fdce42d23ab2a143a4fd7ad32ea1e802d0029",
  "source": "pragma solidity ^0.4.23;\r\n\r\nimport \"./TradeableContract.sol\";\r\n\r\n/**\r\n * @title ContractCreator.\r\n * @dev Creator of Tradeable Wallet contracts. It is also a repository of Tradeable Wallet addresses.\r\n */\r\ncontract ContractCreator {\r\n\r\n\tbool public stopped = false;\r\n\taddress public owner;\t\r\n\taddress[] public contracts;\r\n \r\n \r\n \tevent NewTradeableWallet(address addr);\r\n\r\n\tmodifier onlyOwner { \r\n\t\trequire(msg.sender == owner); \t\r\n\t\t_; \t\r\n\t}\t\t\r\n\t\r\n\tmodifier stopInEmergency { \r\n\t\trequire(!stopped); \r\n\t\t_; \r\n\t}\r\n\r\n  /**\r\n   * @dev Create a new contract. \r\n   * The owner is going to be msg.sender.   \r\n   */\r\n\tconstructor () public {\r\n\t\towner = msg.sender;\r\n\t}\r\n\r\n  /**\r\n   * @dev create a new Tradeable Contract, stores its reference and emit an event with the same info \r\n   * @return the address of the create contract.\r\n   */\r\n\tfunction createTradeableContract() public stopInEmergency returns(address subcontractAddr) {\r\n\t\tTradeableContract tc = new TradeableContract(msg.sender); \r\n\t\tcontracts.push(tc);\r\n\t\temit NewTradeableWallet(address(tc));\r\n\t\treturn tc;\t\t\r\n\t}\r\n\r\n  /**\r\n   * @dev Useful to enable a pause in the creation of new Tradeable Contracts. \r\n   * It can only be called by the owner.\r\n   * @param b If true, it is not possible to create new Tradeable Contracts.\r\n   */\r\n\tfunction setCircuitBreaker (bool b) public onlyOwner {\r\n\t\tstopped = b;\r\n\t} \t\r\n\r\n  /**\r\n   * @dev Returns the number of Tradeable Contract created. \r\n   * This number does not consider if the Tradeable Contract is alive (it could be killed by its owner)\r\n   */\r\n\tfunction getContractCount() public view returns(uint contractCount) {\r\n\t\treturn contracts.length;\r\n\t}\r\n\r\n  /**\r\n   * @dev Returns the address all Tradeable Contract created. \r\n   * This set does not consider if the Tradeable Contract is alive (it could be killed by its owner)\r\n   */\r\n\tfunction getContracts() public view returns (address[]) {\r\n\t\treturn contracts;\r\n\t}\r\n\r\n  /**\r\n   * @dev Returns the owner of this contract.\r\n   */\r\n\tfunction getOwner() public view returns (address) {\r\n\t\treturn owner;\r\n\t}\r\n\r\n}",
  "sourcePath": "C:\\workspace\\tradeable-wallet\\back-blockchain\\contracts\\ContractCreator.sol",
  "compiler": {
    "name": "solc",
    "version": "0.4.24+commit.e67f0147.Emscripten.clang"
  },
  "schemaVersion": "2.0.1",
  "updatedAt": "2018-08-22T12:00:03.674Z"
}