{
  "contractName": "LibraryDemo",
  "abi": [
    {
      "inputs": [],
      "payable": false,
      "stateMutability": "nonpayable",
      "type": "constructor"
    },
    {
      "constant": false,
      "inputs": [
        {
          "name": "bookCode",
          "type": "uint256"
        },
        {
          "name": "price",
          "type": "uint256"
        }
      ],
      "name": "includeBook",
      "outputs": [],
      "payable": false,
      "stateMutability": "nonpayable",
      "type": "function"
    },
    {
      "constant": true,
      "inputs": [
        {
          "name": "maxCode",
          "type": "uint256"
        }
      ],
      "name": "getTotalPriceUntilACode",
      "outputs": [
        {
          "name": "",
          "type": "uint256"
        }
      ],
      "payable": false,
      "stateMutability": "view",
      "type": "function"
    }
  ],
  "bytecode": "0x608060405234801561001057600080fd5b5061017b806100206000396000f30060806040526004361061004c576000357c0100000000000000000000000000000000000000000000000000000000900463ffffffff16806357ddbd7a1461005157806366d7ecfd14610092575b600080fd5b34801561005d57600080fd5b5061007c600480360381019080803590602001909291905050506100c9565b6040518082815260200191505060405180910390f35b34801561009e57600080fd5b506100c76004803603810190808035906020019092919080359060200190929190505050610113565b005b6000806000809150600090505b83811015610109576100fa826000808481526020019081526020016000205461012e565b915080806001019150506100d6565b8192505050919050565b80600080848152602001908152602001600020819055505050565b600080828401905083811015151561014557600080fd5b80915050929150505600a165627a7a72305820daf3b1f20fecd5b434fd0d274c6bb10bbfa35ef50e7f33680d93f8fa77a291350029",
  "source": "pragma solidity ^0.4.23;\r\n\r\nimport \"./SafeMath.sol\";\r\n\r\n/**\r\n * @title LibraryDemo\r\n * @dev Demo to show how to use libraries.\r\n */\r\ncontract LibraryDemo {\r\n\r\n\tmapping (uint => uint) booksToPrices;\r\n\r\n\tconstructor() public {\r\n\r\n\t}\r\n\r\n  /**\r\n   * @dev include a new book in a set.\r\n   * @param bookCode - index of the book in the set of books. \r\n   * @param price - price of the book\r\n   */\r\n\tfunction includeBook(uint bookCode, uint price) public  {\r\n\t\tbooksToPrices[bookCode] = price;\r\n\t}\r\n\r\n  /**\r\n   * @dev ilustrate the use of the library SafeMath.  \r\n   * DO NOT REUSE THIS CODE: It function is vulnerable to DoS with Block Gas Limit. It is for illustrative purporses only.\r\n   * @param maxCode value of max index (=code) whose price is going to be summed.\r\n   * @return the function is going to return the price sum of books from index 0 until index maxCode.\r\n   */\r\n\tfunction getTotalPriceUntilACode(uint maxCode) public view returns(uint) {\r\n\r\n        uint total = 0;\r\n        for (uint i=0; i<maxCode; i++) {\r\n            total = SafeMath.add(total, booksToPrices[i]);\r\n        }\r\n        return total;\r\n\t}\r\n\r\n}",
  "sourcePath": "C:\\workspace\\tradeable-wallet\\back-blockchain\\contracts\\LibraryDemo.sol",
  "compiler": {
    "name": "solc",
    "version": "0.4.24+commit.e67f0147.Emscripten.clang"
  },
  "schemaVersion": "2.0.1",
  "updatedAt": "2018-08-27T02:39:26.294Z"
}