{
  "contractName": "TradeableContract",
  "abi": [
    {
      "constant": true,
      "inputs": [],
      "name": "isAvailableToSell",
      "outputs": [
        {
          "name": "",
          "type": "bool"
        }
      ],
      "payable": false,
      "stateMutability": "view",
      "type": "function"
    },
    {
      "constant": true,
      "inputs": [],
      "name": "denominatorFee",
      "outputs": [
        {
          "name": "",
          "type": "uint8"
        }
      ],
      "payable": false,
      "stateMutability": "view",
      "type": "function"
    },
    {
      "constant": true,
      "inputs": [],
      "name": "hashToDescription",
      "outputs": [
        {
          "name": "",
          "type": "string"
        }
      ],
      "payable": false,
      "stateMutability": "view",
      "type": "function"
    },
    {
      "constant": true,
      "inputs": [],
      "name": "owner",
      "outputs": [
        {
          "name": "",
          "type": "address"
        }
      ],
      "payable": false,
      "stateMutability": "view",
      "type": "function"
    },
    {
      "constant": true,
      "inputs": [],
      "name": "priceToSellInWei",
      "outputs": [
        {
          "name": "",
          "type": "uint128"
        }
      ],
      "payable": false,
      "stateMutability": "view",
      "type": "function"
    },
    {
      "inputs": [
        {
          "name": "ownerAddr",
          "type": "address"
        }
      ],
      "payable": false,
      "stateMutability": "nonpayable",
      "type": "constructor"
    },
    {
      "payable": true,
      "stateMutability": "payable",
      "type": "fallback"
    },
    {
      "anonymous": false,
      "inputs": [
        {
          "indexed": false,
          "name": "old",
          "type": "address"
        },
        {
          "indexed": false,
          "name": "current",
          "type": "address"
        }
      ],
      "name": "NewOwnerEvent",
      "type": "event"
    },
    {
      "anonymous": false,
      "inputs": [
        {
          "indexed": false,
          "name": "tokenAddr",
          "type": "address"
        },
        {
          "indexed": false,
          "name": "owner",
          "type": "address"
        },
        {
          "indexed": false,
          "name": "value",
          "type": "uint256"
        },
        {
          "indexed": true,
          "name": "isWithdraw",
          "type": "bool"
        },
        {
          "indexed": false,
          "name": "sucess",
          "type": "bool"
        }
      ],
      "name": "TransferTokensEvent",
      "type": "event"
    },
    {
      "anonymous": false,
      "inputs": [
        {
          "indexed": false,
          "name": "owner",
          "type": "address"
        },
        {
          "indexed": false,
          "name": "value",
          "type": "uint256"
        },
        {
          "indexed": true,
          "name": "isWithdraw",
          "type": "bool"
        }
      ],
      "name": "TransferETHEvent",
      "type": "event"
    },
    {
      "anonymous": false,
      "inputs": [
        {
          "indexed": false,
          "name": "owner",
          "type": "address"
        },
        {
          "indexed": false,
          "name": "contractAddr",
          "type": "address"
        }
      ],
      "name": "AvaliableToSellEvent",
      "type": "event"
    },
    {
      "anonymous": false,
      "inputs": [
        {
          "indexed": false,
          "name": "sender",
          "type": "address"
        }
      ],
      "name": "DepositReceivedEvent",
      "type": "event"
    },
    {
      "constant": true,
      "inputs": [],
      "name": "getOwner",
      "outputs": [
        {
          "name": "",
          "type": "address"
        }
      ],
      "payable": false,
      "stateMutability": "view",
      "type": "function"
    },
    {
      "constant": true,
      "inputs": [],
      "name": "getHashDescription",
      "outputs": [
        {
          "name": "",
          "type": "string"
        }
      ],
      "payable": false,
      "stateMutability": "view",
      "type": "function"
    },
    {
      "constant": true,
      "inputs": [],
      "name": "getDenominatorFee",
      "outputs": [
        {
          "name": "",
          "type": "uint8"
        }
      ],
      "payable": false,
      "stateMutability": "view",
      "type": "function"
    },
    {
      "constant": false,
      "inputs": [
        {
          "name": "hDescription",
          "type": "string"
        }
      ],
      "name": "changeHashDescription",
      "outputs": [],
      "payable": false,
      "stateMutability": "nonpayable",
      "type": "function"
    },
    {
      "constant": true,
      "inputs": [],
      "name": "getPriceToSellInWei",
      "outputs": [
        {
          "name": "",
          "type": "int256"
        }
      ],
      "payable": false,
      "stateMutability": "view",
      "type": "function"
    },
    {
      "constant": false,
      "inputs": [
        {
          "name": "priceInWei",
          "type": "uint128"
        },
        {
          "name": "hDescription",
          "type": "string"
        }
      ],
      "name": "setAvailableToSell",
      "outputs": [],
      "payable": false,
      "stateMutability": "nonpayable",
      "type": "function"
    },
    {
      "constant": false,
      "inputs": [],
      "name": "untrustedChangeOwnershipWithTrade",
      "outputs": [],
      "payable": true,
      "stateMutability": "payable",
      "type": "function"
    },
    {
      "constant": false,
      "inputs": [
        {
          "name": "tokenAddr",
          "type": "address"
        },
        {
          "name": "value",
          "type": "uint256"
        }
      ],
      "name": "makeUntrustedWithdrawalOfTokens",
      "outputs": [
        {
          "name": "",
          "type": "bool"
        }
      ],
      "payable": false,
      "stateMutability": "nonpayable",
      "type": "function"
    },
    {
      "constant": false,
      "inputs": [
        {
          "name": "valueInWei",
          "type": "uint256"
        }
      ],
      "name": "makeUntrustWithdrawOfEther",
      "outputs": [],
      "payable": false,
      "stateMutability": "nonpayable",
      "type": "function"
    },
    {
      "constant": false,
      "inputs": [
        {
          "name": "tokenAddr",
          "type": "address"
        },
        {
          "name": "to",
          "type": "address"
        },
        {
          "name": "value",
          "type": "uint256"
        }
      ],
      "name": "makeUntrustedTokenTransferToOutside",
      "outputs": [
        {
          "name": "",
          "type": "bool"
        }
      ],
      "payable": false,
      "stateMutability": "nonpayable",
      "type": "function"
    },
    {
      "constant": false,
      "inputs": [
        {
          "name": "to",
          "type": "address"
        },
        {
          "name": "valueInWei",
          "type": "uint256"
        }
      ],
      "name": "makeUntrustedEtherTransferToOutside",
      "outputs": [],
      "payable": false,
      "stateMutability": "nonpayable",
      "type": "function"
    },
    {
      "constant": true,
      "inputs": [],
      "name": "getEtherBalance",
      "outputs": [
        {
          "name": "",
          "type": "uint256"
        }
      ],
      "payable": false,
      "stateMutability": "view",
      "type": "function"
    },
    {
      "constant": true,
      "inputs": [
        {
          "name": "tokenAddr",
          "type": "address"
        }
      ],
      "name": "getTokenBalanceOf",
      "outputs": [
        {
          "name": "",
          "type": "uint256"
        }
      ],
      "payable": false,
      "stateMutability": "view",
      "type": "function"
    }
  ],
  "bytecode": "0x608060405234801561001057600080fd5b506040516020806118a983398101806040528101908080519060200190929190505050806000806101000a81548173ffffffffffffffffffffffffffffffffffffffff021916908373ffffffffffffffffffffffffffffffffffffffff1602179055506028600360006101000a81548160ff021916908360ff1602179055507f09f86d61eb5d6904c1fa8e5f071f171ec90eccc6e0a7b61d563a7d693db815f660008060009054906101000a900473ffffffffffffffffffffffffffffffffffffffff16604051808373ffffffffffffffffffffffffffffffffffffffff1681526020018273ffffffffffffffffffffffffffffffffffffffff1673ffffffffffffffffffffffffffffffffffffffff1681526020019250505060405180910390a150611767806101426000396000f3006080604052600436106100fc576000357c0100000000000000000000000000000000000000000000000000000000900463ffffffff16806307cd2589146101735780631221c811146101a25780631f2be9c9146101cf578063215238ac1461020057806343ff4564146102905780634af1c8a9146102cb578063521568bd146102fc5780635d6eb6ad146103275780636c49286e1461037457806383894548146103f9578063893d20e814610450578063897fbabf146104a75780638da5cb5b14610537578063a60f7a381461058e578063b17fd105146105f3578063c7f7bd1d1461064a578063cb7c86b214610699578063ea46193e146106a3575b60008036905014151561010e57600080fd5b7fbf1867699ca82c037f48dd4280d187dc55f63fff3103b818cfcf938891ec9b1d33604051808273ffffffffffffffffffffffffffffffffffffffff1673ffffffffffffffffffffffffffffffffffffffff16815260200191505060405180910390a1005b34801561017f57600080fd5b506101886106ce565b604051808215151515815260200191505060405180910390f35b3480156101ae57600080fd5b506101cd600480360381019080803590602001909291905050506106e1565b005b3480156101db57600080fd5b506101e461085d565b604051808260ff1660ff16815260200191505060405180910390f35b34801561020c57600080fd5b50610215610870565b6040518080602001828103825283818151815260200191508051906020019080838360005b8381101561025557808201518184015260208101905061023a565b50505050905090810190601f1680156102825780820380516001836020036101000a031916815260200191505b509250505060405180910390f35b34801561029c57600080fd5b506102c960048036038101908080359060200190820180359060200191909192939192939050505061090e565b005b3480156102d757600080fd5b506102e061097f565b604051808260ff1660ff16815260200191505060405180910390f35b34801561030857600080fd5b50610311610996565b6040518082815260200191505060405180910390f35b34801561033357600080fd5b50610372600480360381019080803573ffffffffffffffffffffffffffffffffffffffff16906020019092919080359060200190929190505050610a0c565b005b34801561038057600080fd5b506103df600480360381019080803573ffffffffffffffffffffffffffffffffffffffff169060200190929190803573ffffffffffffffffffffffffffffffffffffffff16906020019092919080359060200190929190505050610bbe565b604051808215151515815260200191505060405180910390f35b34801561040557600080fd5b5061043a600480360381019080803573ffffffffffffffffffffffffffffffffffffffff169060200190929190505050610db6565b6040518082815260200191505060405180910390f35b34801561045c57600080fd5b50610465610e95565b604051808273ffffffffffffffffffffffffffffffffffffffff1673ffffffffffffffffffffffffffffffffffffffff16815260200191505060405180910390f35b3480156104b357600080fd5b506104bc610ebe565b6040518080602001828103825283818151815260200191508051906020019080838360005b838110156104fc5780820151818401526020810190506104e1565b50505050905090810190601f1680156105295780820380516001836020036101000a031916815260200191505b509250505060405180910390f35b34801561054357600080fd5b5061054c610f60565b604051808273ffffffffffffffffffffffffffffffffffffffff1673ffffffffffffffffffffffffffffffffffffffff16815260200191505060405180910390f35b34801561059a57600080fd5b506105d9600480360381019080803573ffffffffffffffffffffffffffffffffffffffff16906020019092919080359060200190929190505050610f85565b604051808215151515815260200191505060405180910390f35b3480156105ff57600080fd5b5061064860048036038101908080356fffffffffffffffffffffffffffffffff1690602001909291908035906020019082018035906020019190919293919293905050506111be565b005b34801561065657600080fd5b5061065f61133b565b60405180826fffffffffffffffffffffffffffffffff166fffffffffffffffffffffffffffffffff16815260200191505060405180910390f35b6106a161135d565b005b3480156106af57600080fd5b506106b8611677565b6040518082815260200191505060405180910390f35b600160109054906101000a900460ff1681565b6000809054906101000a900473ffffffffffffffffffffffffffffffffffffffff1673ffffffffffffffffffffffffffffffffffffffff163373ffffffffffffffffffffffffffffffffffffffff1614151561073c57600080fd5b803073ffffffffffffffffffffffffffffffffffffffff16311015151561076257600080fd5b600115157faac3f38d160a370c9036e0523257f13f774eb02a325abb4d94f4892409fe07836000809054906101000a900473ffffffffffffffffffffffffffffffffffffffff1683604051808373ffffffffffffffffffffffffffffffffffffffff1673ffffffffffffffffffffffffffffffffffffffff1681526020018281526020019250505060405180910390a26000809054906101000a900473ffffffffffffffffffffffffffffffffffffffff1673ffffffffffffffffffffffffffffffffffffffff166108fc829081150290604051600060405180830381858888f19350505050158015610859573d6000803e3d6000fd5b5050565b600360009054906101000a900460ff1681565b60028054600181600116156101000203166002900480601f0160208091040260200160405190810160405280929190818152602001828054600181600116156101000203166002900480156109065780601f106108db57610100808354040283529160200191610906565b820191906000526020600020905b8154815290600101906020018083116108e957829003601f168201915b505050505081565b6000809054906101000a900473ffffffffffffffffffffffffffffffffffffffff1673ffffffffffffffffffffffffffffffffffffffff163373ffffffffffffffffffffffffffffffffffffffff1614151561096957600080fd5b81816002919061097a929190611696565b505050565b6000600360009054906101000a900460ff16905090565b6000600160109054906101000a900460ff16156109e557600160009054906101000a90046fffffffffffffffffffffffffffffffff166fffffffffffffffffffffffffffffffff169050610a09565b7fffffffffffffffffffffffffffffffffffffffffffffffffffffffffffffffff90505b90565b6000809054906101000a900473ffffffffffffffffffffffffffffffffffffffff1673ffffffffffffffffffffffffffffffffffffffff163373ffffffffffffffffffffffffffffffffffffffff16141515610a6757600080fd5b600073ffffffffffffffffffffffffffffffffffffffff168273ffffffffffffffffffffffffffffffffffffffff1614151515610aa357600080fd5b3073ffffffffffffffffffffffffffffffffffffffff168273ffffffffffffffffffffffffffffffffffffffff1614151515610ade57600080fd5b803073ffffffffffffffffffffffffffffffffffffffff163110151515610b0457600080fd5b600015157faac3f38d160a370c9036e0523257f13f774eb02a325abb4d94f4892409fe07838383604051808373ffffffffffffffffffffffffffffffffffffffff1673ffffffffffffffffffffffffffffffffffffffff1681526020018281526020019250505060405180910390a28173ffffffffffffffffffffffffffffffffffffffff166108fc829081150290604051600060405180830381858888f19350505050158015610bb9573d6000803e3d6000fd5b505050565b6000806000809054906101000a900473ffffffffffffffffffffffffffffffffffffffff1673ffffffffffffffffffffffffffffffffffffffff163373ffffffffffffffffffffffffffffffffffffffff16141515610c1c57600080fd5b8473ffffffffffffffffffffffffffffffffffffffff1663a9059cbb85856040518363ffffffff167c0100000000000000000000000000000000000000000000000000000000028152600401808373ffffffffffffffffffffffffffffffffffffffff1673ffffffffffffffffffffffffffffffffffffffff16815260200182815260200192505050602060405180830381600087803b158015610cbf57600080fd5b505af1158015610cd3573d6000803e3d6000fd5b505050506040513d6020811015610ce957600080fd5b81019080805190602001909291905050509050600015157faeceea4a0cf1f3d21fe26bb8ba350edc1eadf24df06e0166857a4127b65aad0a86868685604051808573ffffffffffffffffffffffffffffffffffffffff1673ffffffffffffffffffffffffffffffffffffffff1681526020018473ffffffffffffffffffffffffffffffffffffffff1673ffffffffffffffffffffffffffffffffffffffff1681526020018381526020018215151515815260200194505050505060405180910390a2809150509392505050565b60008173ffffffffffffffffffffffffffffffffffffffff16639b96eece306040518263ffffffff167c0100000000000000000000000000000000000000000000000000000000028152600401808273ffffffffffffffffffffffffffffffffffffffff1673ffffffffffffffffffffffffffffffffffffffff168152602001915050602060405180830381600087803b158015610e5357600080fd5b505af1158015610e67573d6000803e3d6000fd5b505050506040513d6020811015610e7d57600080fd5b81019080805190602001909291905050509050919050565b60008060009054906101000a900473ffffffffffffffffffffffffffffffffffffffff16905090565b606060028054600181600116156101000203166002900480601f016020809104026020016040519081016040528092919081815260200182805460018160011615610100020316600290048015610f565780601f10610f2b57610100808354040283529160200191610f56565b820191906000526020600020905b815481529060010190602001808311610f3957829003601f168201915b5050505050905090565b6000809054906101000a900473ffffffffffffffffffffffffffffffffffffffff1681565b6000806000809054906101000a900473ffffffffffffffffffffffffffffffffffffffff1673ffffffffffffffffffffffffffffffffffffffff163373ffffffffffffffffffffffffffffffffffffffff16141515610fe357600080fd5b8373ffffffffffffffffffffffffffffffffffffffff1663a9059cbb6000809054906101000a900473ffffffffffffffffffffffffffffffffffffffff16856040518363ffffffff167c0100000000000000000000000000000000000000000000000000000000028152600401808373ffffffffffffffffffffffffffffffffffffffff1673ffffffffffffffffffffffffffffffffffffffff16815260200182815260200192505050602060405180830381600087803b1580156110a757600080fd5b505af11580156110bb573d6000803e3d6000fd5b505050506040513d60208110156110d157600080fd5b81019080805190602001909291905050509050600115157faeceea4a0cf1f3d21fe26bb8ba350edc1eadf24df06e0166857a4127b65aad0a856000809054906101000a900473ffffffffffffffffffffffffffffffffffffffff168685604051808573ffffffffffffffffffffffffffffffffffffffff1673ffffffffffffffffffffffffffffffffffffffff1681526020018473ffffffffffffffffffffffffffffffffffffffff1673ffffffffffffffffffffffffffffffffffffffff1681526020018381526020018215151515815260200194505050505060405180910390a28091505092915050565b6000809054906101000a900473ffffffffffffffffffffffffffffffffffffffff1673ffffffffffffffffffffffffffffffffffffffff163373ffffffffffffffffffffffffffffffffffffffff1614151561121957600080fd5b60018060106101000a81548160ff02191690831515021790555082600160006101000a8154816fffffffffffffffffffffffffffffffff02191690836fffffffffffffffffffffffffffffffff16021790555081816002919061127d929190611696565b507fe49eb4b758b4cf05f8be0e4fe524b59a5167d2778884883b4815b2ac3860959c6000809054906101000a900473ffffffffffffffffffffffffffffffffffffffff1630604051808373ffffffffffffffffffffffffffffffffffffffff1673ffffffffffffffffffffffffffffffffffffffff1681526020018273ffffffffffffffffffffffffffffffffffffffff1673ffffffffffffffffffffffffffffffffffffffff1681526020019250505060405180910390a1505050565b600160009054906101000a90046fffffffffffffffffffffffffffffffff1681565b60008060008060011515600160109054906101000a900460ff16151514151561138557600080fd5b600160009054906101000a90046fffffffffffffffffffffffffffffffff166fffffffffffffffffffffffffffffffff1634101515156113c457600080fd5b6000809054906101000a900473ffffffffffffffffffffffffffffffffffffffff169350336000806101000a81548173ffffffffffffffffffffffffffffffffffffffff021916908373ffffffffffffffffffffffffffffffffffffffff1602179055507f09f86d61eb5d6904c1fa8e5f071f171ec90eccc6e0a7b61d563a7d693db815f6846000809054906101000a900473ffffffffffffffffffffffffffffffffffffffff16604051808373ffffffffffffffffffffffffffffffffffffffff1673ffffffffffffffffffffffffffffffffffffffff1681526020018273ffffffffffffffffffffffffffffffffffffffff1673ffffffffffffffffffffffffffffffffffffffff1681526020019250505060405180910390a16000600160106101000a81548160ff02191690831515021790555073e4aaa0fc768fbbafaa15f3cf16530b1d082a95b09250600360009054906101000a900460ff1660ff16600160009054906101000a90046fffffffffffffffffffffffffffffffff166fffffffffffffffffffffffffffffffff1681151561155f57fe5b04915081600160009054906101000a90046fffffffffffffffffffffffffffffffff160390506000600160006101000a8154816fffffffffffffffffffffffffffffffff02191690836fffffffffffffffffffffffffffffffff1602179055508273ffffffffffffffffffffffffffffffffffffffff166108fc836fffffffffffffffffffffffffffffffff169081150290604051600060405180830381858888f19350505050158015611617573d6000803e3d6000fd5b508373ffffffffffffffffffffffffffffffffffffffff166108fc826fffffffffffffffffffffffffffffffff169081150290604051600060405180830381858888f19350505050158015611670573d6000803e3d6000fd5b5050505050565b60003073ffffffffffffffffffffffffffffffffffffffff1631905090565b828054600181600116156101000203166002900490600052602060002090601f016020900481019282601f106116d757803560ff1916838001178555611705565b82800160010185558215611705579182015b828111156117045782358255916020019190600101906116e9565b5b5090506117129190611716565b5090565b61173891905b8082111561173457600081600090555060010161171c565b5090565b905600a165627a7a7230582088ef3ad389faefccafa74ba21a976dce307485d733e6ac9890bba101adee98e60029",
  "source": "pragma solidity ^0.4.23;\r\n\r\nimport \"./IERC20Token.sol\";\r\nimport \"./ITradeableContract.sol\";\r\n\r\n/**\r\n * @title TradeableContract\r\n * @dev Contract that represent a Wallet, whose ownership can be traded (sell/buy).\r\n * This contract can be used to receive ERC20 tokens. \r\n */\r\ncontract TradeableContract is ITradeableContract {\r\n    \r\n  /**\r\n   * @dev Assure that only the owner can invoke a function.   \r\n   */\r\n\tmodifier onlyOwner {\r\n\t\trequire(msg.sender == owner); \t\r\n\t\t_;\r\n\t}\t\t\r\n\r\n\r\n  /**\r\n   * @dev Owner of this contract.   \r\n   */\t\r\n\taddress public owner;\r\n\r\n  /**\r\n   * @dev Price of this contract (the information is only valid if and only if the contract is available to sell.   \r\n   */\r\n\tuint128 public priceToSellInWei;\r\n\r\n  /**\r\n   * @dev Represent the info if the contract is available to sell or not. \r\n   * I could have used price as int and not used this field. It could assume -1 is the contract is not available to sell. \r\n   * However, it is safer to treat price always as uint.  \r\n   */\t\r\n\tbool public isAvailableToSell;\r\n\r\n  /**\r\n   * @dev Hash to the description of this contracts.    \r\n   * The description itself is stored off-chain.  \r\n   * It can be used during sell-buy transactions.\r\n   */\t\r\n\tstring public hashToDescription;\r\n\r\n\r\n  /**\r\n   * @dev Denominator to be used to caculate fee. \r\n   * The fee value is calculated by priceToSellInWei/denominatorFee.\r\n   * Should be a number between >1 and <100\r\n   */\t\r\n\tuint8 public denominatorFee;\r\n\r\n\r\n  /**\r\n   * @dev Create a new contract. \r\n   * @param ownerAddr is going to be the owner of this contract. \r\n   * It emits an event with the new onwer. Since there is no old owner, it is represented by 0x0.  \r\n   */\r\n\tconstructor (address ownerAddr) public {\r\n\t\towner = ownerAddr;\r\n\t\tdenominatorFee = 40;\r\n\t\temit NewOwnerEvent(0x0,owner);\r\n\t}\r\n\r\n\r\n  /**\r\n   * @dev Return the current owner of this contract.\r\n   * @return the owner of this contract.\r\n   */\t\r\n\tfunction getOwner() external view returns (address) {\r\n\t\treturn owner;\r\n\t}\r\n\r\n  /**\r\n   * @dev Return the hash description of this contract.\r\n   * @return the hash to the description of this contract.\r\n   */\t\r\n\tfunction getHashDescription() external view returns (string) {\r\n\t\treturn hashToDescription;\r\n\t}\r\n\r\n  /**\r\n   * @dev Returns denominator to be used in the calculation of fee value\r\n   * The fee value is calculated by price (in Wei)/(denominator fee).\r\n   * @return Denominator to calculate fee value \r\n   */\r\n\tfunction getDenominatorFee() view external returns (uint8) {\r\n\t\treturn denominatorFee;\r\n\t}\r\n\r\n  /**\r\n   * @dev Change the hash to the description to this wallet\r\n   * @param hDescription new hash description to this wallet.\r\n   */\t\r\n\tfunction changeHashDescription(string hDescription) external onlyOwner {\r\n\t\thashToDescription = hDescription;\r\n\t}\r\n\r\n  /**\r\n   * @dev Return the price for sell this contract, in Wei. \r\n   * If the current owner does not put it for sale, the returned value is going to be -1.\r\n   * @return price in Wei or -1.\r\n   */\r\n\tfunction getPriceToSellInWei() external view returns (int256) {\t\t\r\n\t\tif (isAvailableToSell) {\r\n\t\t\treturn priceToSellInWei;\r\n\t\t}  \r\n\t\treturn -1;\r\n\t}\r\n\r\n\r\n   /**\r\n\t* @dev Indicate that this contract is available to sell.\r\n\t* It can only be called by the owner.\r\n\t* It emits an event in order to allow anyone to monitor new opportunities to buy.\r\n\t* @param priceInWei Price that the owner wants to sell this contract (in Wei)\r\n\t* @param hDescription Hash to the description of this contract \r\n\t*/\r\n \tfunction setAvailableToSell (uint128 priceInWei, string hDescription) external onlyOwner {\r\n\t\tisAvailableToSell = true;\r\n\t\tpriceToSellInWei = priceInWei;\r\n\t\thashToDescription = hDescription;\r\n\t\temit AvaliableToSellEvent(owner, address(this));\r\n\t}\r\n\r\n   /**\r\n\t* @dev Change the ownership of this contract. It happens when someone buys an available to sell contract.\r\n\t* This functions is payable - It should receive necessary money to cover the contract price.\r\n\t*\r\n    * This function is marked as untrusted since this smart contract cannot trust the oldOwner code during the transfer.\r\n    * It executes the external calls as the last steps in order to avoid attacks.\r\n\t* FeeAddress is a well-know and safe address, so it must happen before the transfer to the oldOwner.\r\n    * It is important to note that who is going to invoke this function can see the oldOwner code before. \r\n\t*\r\n\t* This function follows the pattern Checks-Effects-Interactions in order to avoid reentrancy attacks. \r\n\t* In this function, the ownership is changed, the old owner receives what price in Wei he asked for \r\n\t* and a fee is collected. \r\n\t* It emits an event with the old and new owners.\r\n\t*/\r\n\tfunction untrustedChangeOwnershipWithTrade () payable external  {\r\n\r\n\t\t//Checks-Effects-Interactions pattern\r\n\r\n\t\t// CHECK - calculating values to transfer \r\n\t\trequire (isAvailableToSell==true);\r\n\t\trequire (msg.value >= priceToSellInWei);     \r\n//\t\tassert (denominatorFee > 1 && denominatorFee < 100);\r\n\r\n\t\t//EFFECTS\r\n\t\taddress oldOwner = owner;      \r\n\t\towner = msg.sender;\r\n\t\temit NewOwnerEvent(oldOwner, owner); \t\r\n\r\n\t\tisAvailableToSell = false;\r\n\r\n\t\t//The option was to transfer to a constant address\r\n\t\t//If this option was receive this address, someone atack by indicating other address \r\n\t\taddress feeAddress = 0xE4aaA0FC768FbBaFAa15f3cf16530b1D082a95b0;\r\n\r\n\t\t// All integer division rounds down to the nearest integer. \r\n\t\t// Then, the charged fee when someone buy a contract is, AT MOST, 5%.\r\n\t\tuint128 feeValueInWei = priceToSellInWei/denominatorFee;\r\n\t\tuint128 valueToOwnerInWei = priceToSellInWei-feeValueInWei;\r\n\r\n\t\tpriceToSellInWei = 0; //Avoid reentrancy attack\r\n\r\n\t\t//INTERACTION\r\n\t\tfeeAddress.transfer(feeValueInWei);\r\n\t\toldOwner.transfer(valueToOwnerInWei);\r\n\r\n\t}\r\n\r\n   /**\r\n\t* @dev Since this contract represents a wallet it is worth to enable the possibility to receive ether.\r\n\t*/\r\n\tfunction() payable external { \r\n\t\t\r\n\t\t//avoid receive funds when someone just entered a wrong function name\r\n\t\trequire(msg.data.length == 0); \r\n\t\t\r\n\t\temit DepositReceivedEvent(msg.sender); \r\n\t}\r\n\r\n\r\n  /**\r\n   * @dev Transfer tokens to the owner of its contract. \r\n   * It is necessary to call the transfer function of the original ERC20 contract code.\r\n   *\r\n   * This function is marked as untrusted since this smart contract cannot trust the original code of the ERC-20 token.\r\n   * It executes the external call as the last step in order to avoid attacks.\r\n   * It is important to note that who is going to invoke this function can see the tokenAddr before. \r\n   *\r\n   * It emits an event representing the withdraw. \r\n   * It can only be called by the owner.\r\n   * \r\n   * @param tokenAddr IERC-20 address of tokens to be transfered.\r\n   * @param value Value of tokens to be withdraw.\r\n   * @return bool from the transfer function in the ERC-20 token.\r\n   */\r\n\tfunction makeUntrustedWithdrawalOfTokens (address tokenAddr, uint256 value) external onlyOwner returns (bool) {\r\n\r\n\t\tbool b = IERC20Token(tokenAddr).transfer(owner,value);\r\n\t\t\r\n\t\temit TransferTokensEvent(tokenAddr, owner, value, true, b);\r\n\r\n\t\treturn b;\r\n\r\n\t}\r\n\r\n  /**\r\n   * @dev Transfer ether from external contracts to the owner of its contract. \r\n   *\r\n   * This function is marked as untrusted since this smart contract cannot trust external calls.\r\n   * It does not return any value, throwing an exception in case of failure.\r\n   *\r\n   * It should emit an event representing the withdraw. \r\n   * It should only be called by the owner.\r\n   * \r\n   * @param valueInWei Value of ether to be withdraw (in Wei).\r\n   */\r\n\tfunction makeUntrustWithdrawOfEther(uint256 valueInWei) external onlyOwner {\r\n\t\t\r\n\t\trequire (address(this).balance >= valueInWei);\r\n\r\n\t\temit TransferETHEvent(owner, valueInWei, true);\r\n\r\n\t\t//Since it is Ether, the Ethereum plataform takes care of reentrancy attacks\r\n\t\towner.transfer(valueInWei);\r\n\t}\r\n\r\n  /**\r\n   * @dev Transfer tokens from this contract to an external account. \r\n   *\r\n   * This function is marked as untrusted since this smart contract cannot trust external calls.\r\n   *\r\n   * It should emit an event representing the transfer. \r\n   * It should only be called by the owner.\r\n   * \r\n   * @param tokenAddr IERC-20 address of tokens to be transfered.\r\n   * @param to address to be transfered.\r\n   * @param value Value of tokens to be transfered.\r\n   */\r\n\tfunction makeUntrustedTokenTransferToOutside(address tokenAddr, address to, uint256 value) external onlyOwner returns (bool) {\r\n\r\n\t\t//Did not check the same require as makeUntrustedEtherTransferToOutside in order to avoid \r\n\t\t//introducing any noise in the communication wih the ERC-20 token.\r\n\t\t//For example, maybe there is a semantic related to do a transfer to itself in the token contract. \r\n\r\n\t\tbool b = IERC20Token(tokenAddr).transfer(to,value);\r\n\t\t\r\n\t\temit TransferTokensEvent(tokenAddr, to, value, false, b);\r\n\r\n\t\treturn b;\r\n\r\n\t}\r\n\r\n\r\n  /**\r\n   * @dev Transfer Ether from this contract to an external account. \r\n   *\r\n   * This function is marked as untrusted since this smart contract cannot trust external calls.\r\n   * It does not return any value, throwing an exception in case of failure.\r\n   *\r\n   * It should emit an event representing the transfer. \r\n   * It should only be called by the owner.\r\n   * \r\n   * @param to address to be transfered.\r\n   * @param valueInWei Value of ether to be transfered.\r\n   */\r\n\tfunction makeUntrustedEtherTransferToOutside(address to, uint256 valueInWei) external onlyOwner {\r\n\r\n\t\trequire(to != address(0x0));\r\n        require(to != address(this));\r\n        require (address(this).balance >= valueInWei);\r\n\r\n\t\temit TransferETHEvent(to, valueInWei, false);\r\n\r\n\t\t//Since it is Ether, the Ethereum plataform takes care of reentrancy attacks\r\n\t\tto.transfer(valueInWei);\r\n\r\n\t}\r\n\r\n  /**\r\n   * @dev Return the ether balance of this contract. \r\n   * @return ether balance of this contract\r\n   */\r\n\tfunction getEtherBalance () external view returns (uint256) {\r\n\t    return address(this).balance;\r\n\t}\r\n\t\r\n\t\r\n  /**\r\n   * @dev Return the token balance of this contract.\r\n   * @param tokenAddr the address of the token which balance will be returned \r\n   * @return token balance of this contract\r\n   */\r\n\tfunction getTokenBalanceOf (address tokenAddr) external view returns (uint256){\r\n\t\treturn IERC20Token(tokenAddr).getBalanceOf(this);\t\t\r\n\t}\r\n\r\n\r\n} ",
  "sourcePath": "C:\\workspace\\tradeable-wallet\\back-blockchain\\contracts\\TradeableContract.sol",
  "compiler": {
    "name": "solc",
    "version": "0.4.24+commit.e67f0147.Emscripten.clang"
  },
  "schemaVersion": "2.0.1",
  "updatedAt": "2018-08-27T19:49:20.370Z"
}