{
  "contractName": "TradeableContract",
  "abi": [
    {
      "constant": true,
      "inputs": [],
      "name": "isAvailableToSell",
      "outputs": [
        {
          "name": "",
          "type": "bool"
        }
      ],
      "payable": false,
      "stateMutability": "view",
      "type": "function"
    },
    {
      "constant": true,
      "inputs": [],
      "name": "hashToDescription",
      "outputs": [
        {
          "name": "",
          "type": "string"
        }
      ],
      "payable": false,
      "stateMutability": "view",
      "type": "function"
    },
    {
      "constant": true,
      "inputs": [],
      "name": "owner",
      "outputs": [
        {
          "name": "",
          "type": "address"
        }
      ],
      "payable": false,
      "stateMutability": "view",
      "type": "function"
    },
    {
      "constant": true,
      "inputs": [],
      "name": "priceToSellInWei",
      "outputs": [
        {
          "name": "",
          "type": "uint128"
        }
      ],
      "payable": false,
      "stateMutability": "view",
      "type": "function"
    },
    {
      "inputs": [
        {
          "name": "ownerAddr",
          "type": "address"
        }
      ],
      "payable": false,
      "stateMutability": "nonpayable",
      "type": "constructor"
    },
    {
      "payable": true,
      "stateMutability": "payable",
      "type": "fallback"
    },
    {
      "anonymous": false,
      "inputs": [
        {
          "indexed": false,
          "name": "old",
          "type": "address"
        },
        {
          "indexed": false,
          "name": "current",
          "type": "address"
        }
      ],
      "name": "NewOwnerEvent",
      "type": "event"
    },
    {
      "anonymous": false,
      "inputs": [
        {
          "indexed": false,
          "name": "tokenAddr",
          "type": "address"
        },
        {
          "indexed": false,
          "name": "owner",
          "type": "address"
        },
        {
          "indexed": false,
          "name": "value",
          "type": "uint256"
        },
        {
          "indexed": false,
          "name": "sucess",
          "type": "bool"
        }
      ],
      "name": "WithdrawTokensEvent",
      "type": "event"
    },
    {
      "anonymous": false,
      "inputs": [
        {
          "indexed": false,
          "name": "owner",
          "type": "address"
        },
        {
          "indexed": false,
          "name": "contractAddr",
          "type": "address"
        }
      ],
      "name": "AvaliableToSellEvent",
      "type": "event"
    },
    {
      "anonymous": false,
      "inputs": [],
      "name": "KillEvent",
      "type": "event"
    },
    {
      "constant": false,
      "inputs": [],
      "name": "kill",
      "outputs": [],
      "payable": false,
      "stateMutability": "nonpayable",
      "type": "function"
    },
    {
      "constant": true,
      "inputs": [],
      "name": "getOwner",
      "outputs": [
        {
          "name": "",
          "type": "address"
        }
      ],
      "payable": false,
      "stateMutability": "view",
      "type": "function"
    },
    {
      "constant": true,
      "inputs": [],
      "name": "getHashDescription",
      "outputs": [
        {
          "name": "",
          "type": "string"
        }
      ],
      "payable": false,
      "stateMutability": "view",
      "type": "function"
    },
    {
      "constant": false,
      "inputs": [
        {
          "name": "hDescription",
          "type": "string"
        }
      ],
      "name": "changeHashDescription",
      "outputs": [],
      "payable": false,
      "stateMutability": "nonpayable",
      "type": "function"
    },
    {
      "constant": true,
      "inputs": [],
      "name": "getPriceToSellInWei",
      "outputs": [
        {
          "name": "",
          "type": "int256"
        }
      ],
      "payable": false,
      "stateMutability": "view",
      "type": "function"
    },
    {
      "constant": false,
      "inputs": [
        {
          "name": "tokenAddr",
          "type": "address"
        },
        {
          "name": "value",
          "type": "uint256"
        }
      ],
      "name": "makeUntrustedWithdrawalOfTokens",
      "outputs": [
        {
          "name": "",
          "type": "bool"
        }
      ],
      "payable": false,
      "stateMutability": "nonpayable",
      "type": "function"
    },
    {
      "constant": false,
      "inputs": [],
      "name": "reclaimEther",
      "outputs": [],
      "payable": false,
      "stateMutability": "nonpayable",
      "type": "function"
    },
    {
      "constant": false,
      "inputs": [
        {
          "name": "priceInWei",
          "type": "uint128"
        },
        {
          "name": "hDescription",
          "type": "string"
        }
      ],
      "name": "setAvailableToSell",
      "outputs": [],
      "payable": false,
      "stateMutability": "nonpayable",
      "type": "function"
    },
    {
      "constant": false,
      "inputs": [],
      "name": "untrustedChangeOwnershipWithTrade",
      "outputs": [],
      "payable": true,
      "stateMutability": "payable",
      "type": "function"
    }
  ],
  "bytecode": "0x608060405234801561001057600080fd5b5060405160208061116683398101806040528101908080519060200190929190505050806000806101000a81548173ffffffffffffffffffffffffffffffffffffffff021916908373ffffffffffffffffffffffffffffffffffffffff1602179055507f09f86d61eb5d6904c1fa8e5f071f171ec90eccc6e0a7b61d563a7d693db815f660008060009054906101000a900473ffffffffffffffffffffffffffffffffffffffff16604051808373ffffffffffffffffffffffffffffffffffffffff1681526020018273ffffffffffffffffffffffffffffffffffffffff1673ffffffffffffffffffffffffffffffffffffffff1681526020019250505060405180910390a150611040806101266000396000f3006080604052600436106100c5576000357c0100000000000000000000000000000000000000000000000000000000900463ffffffff16806307cd2589146100c7578063215238ac146100f657806341c0e1b51461018657806343ff45641461019d578063521568bd146101d8578063893d20e814610203578063897fbabf1461025a5780638da5cb5b146102ea5780639f727c2714610341578063a60f7a3814610358578063b17fd105146103bd578063c7f7bd1d14610414578063cb7c86b214610463575b005b3480156100d357600080fd5b506100dc61046d565b604051808215151515815260200191505060405180910390f35b34801561010257600080fd5b5061010b610480565b6040518080602001828103825283818151815260200191508051906020019080838360005b8381101561014b578082015181840152602081019050610130565b50505050905090810190601f1680156101785780820380516001836020036101000a031916815260200191505b509250505060405180910390f35b34801561019257600080fd5b5061019b61051e565b005b3480156101a957600080fd5b506101d66004803603810190808035906020019082018035906020019190919293919293905050506105df565b005b3480156101e457600080fd5b506101ed610650565b6040518082815260200191505060405180910390f35b34801561020f57600080fd5b506102186106c6565b604051808273ffffffffffffffffffffffffffffffffffffffff1673ffffffffffffffffffffffffffffffffffffffff16815260200191505060405180910390f35b34801561026657600080fd5b5061026f6106ef565b6040518080602001828103825283818151815260200191508051906020019080838360005b838110156102af578082015181840152602081019050610294565b50505050905090810190601f1680156102dc5780820380516001836020036101000a031916815260200191505b509250505060405180910390f35b3480156102f657600080fd5b506102ff610791565b604051808273ffffffffffffffffffffffffffffffffffffffff1673ffffffffffffffffffffffffffffffffffffffff16815260200191505060405180910390f35b34801561034d57600080fd5b506103566107b6565b005b34801561036457600080fd5b506103a3600480360381019080803573ffffffffffffffffffffffffffffffffffffffff16906020019092919080359060200190929190505050610892565b604051808215151515815260200191505060405180910390f35b3480156103c957600080fd5b5061041260048036038101908080356fffffffffffffffffffffffffffffffff169060200190929190803590602001908201803590602001919091929391929390505050610ac7565b005b34801561042057600080fd5b50610429610c44565b60405180826fffffffffffffffffffffffffffffffff166fffffffffffffffffffffffffffffffff16815260200191505060405180910390f35b61046b610c66565b005b600160109054906101000a900460ff1681565b60028054600181600116156101000203166002900480601f0160208091040260200160405190810160405280929190818152602001828054600181600116156101000203166002900480156105165780601f106104eb57610100808354040283529160200191610516565b820191906000526020600020905b8154815290600101906020018083116104f957829003601f168201915b505050505081565b6000809054906101000a900473ffffffffffffffffffffffffffffffffffffffff1673ffffffffffffffffffffffffffffffffffffffff163373ffffffffffffffffffffffffffffffffffffffff1614151561057957600080fd5b7f4ea0e329a2ede766e5f7cb0bbcb31a8910ab561336f5f5518ca473c225a98f5060405160405180910390a16000809054906101000a900473ffffffffffffffffffffffffffffffffffffffff1673ffffffffffffffffffffffffffffffffffffffff16ff5b6000809054906101000a900473ffffffffffffffffffffffffffffffffffffffff1673ffffffffffffffffffffffffffffffffffffffff163373ffffffffffffffffffffffffffffffffffffffff1614151561063a57600080fd5b81816002919061064b929190610f6f565b505050565b6000600160109054906101000a900460ff161561069f57600160009054906101000a90046fffffffffffffffffffffffffffffffff166fffffffffffffffffffffffffffffffff1690506106c3565b7fffffffffffffffffffffffffffffffffffffffffffffffffffffffffffffffff90505b90565b60008060009054906101000a900473ffffffffffffffffffffffffffffffffffffffff16905090565b606060028054600181600116156101000203166002900480601f0160208091040260200160405190810160405280929190818152602001828054600181600116156101000203166002900480156107875780601f1061075c57610100808354040283529160200191610787565b820191906000526020600020905b81548152906001019060200180831161076a57829003601f168201915b5050505050905090565b6000809054906101000a900473ffffffffffffffffffffffffffffffffffffffff1681565b6000809054906101000a900473ffffffffffffffffffffffffffffffffffffffff1673ffffffffffffffffffffffffffffffffffffffff163373ffffffffffffffffffffffffffffffffffffffff1614151561081157600080fd5b6000809054906101000a900473ffffffffffffffffffffffffffffffffffffffff1673ffffffffffffffffffffffffffffffffffffffff166108fc3073ffffffffffffffffffffffffffffffffffffffff16319081150290604051600060405180830381858888f1935050505015801561088f573d6000803e3d6000fd5b50565b6000806000809054906101000a900473ffffffffffffffffffffffffffffffffffffffff1673ffffffffffffffffffffffffffffffffffffffff163373ffffffffffffffffffffffffffffffffffffffff161415156108f057600080fd5b8373ffffffffffffffffffffffffffffffffffffffff1663a9059cbb6000809054906101000a900473ffffffffffffffffffffffffffffffffffffffff16856040518363ffffffff167c0100000000000000000000000000000000000000000000000000000000028152600401808373ffffffffffffffffffffffffffffffffffffffff1673ffffffffffffffffffffffffffffffffffffffff16815260200182815260200192505050602060405180830381600087803b1580156109b457600080fd5b505af11580156109c8573d6000803e3d6000fd5b505050506040513d60208110156109de57600080fd5b810190808051906020019092919050505090507f68b333934bebe88f9d460d709b614c41d6feeafe7585c524b441166d7856716c846000809054906101000a900473ffffffffffffffffffffffffffffffffffffffff168584604051808573ffffffffffffffffffffffffffffffffffffffff1673ffffffffffffffffffffffffffffffffffffffff1681526020018473ffffffffffffffffffffffffffffffffffffffff1673ffffffffffffffffffffffffffffffffffffffff1681526020018381526020018215151515815260200194505050505060405180910390a18091505092915050565b6000809054906101000a900473ffffffffffffffffffffffffffffffffffffffff1673ffffffffffffffffffffffffffffffffffffffff163373ffffffffffffffffffffffffffffffffffffffff16141515610b2257600080fd5b60018060106101000a81548160ff02191690831515021790555082600160006101000a8154816fffffffffffffffffffffffffffffffff02191690836fffffffffffffffffffffffffffffffff160217905550818160029190610b86929190610f6f565b507fe49eb4b758b4cf05f8be0e4fe524b59a5167d2778884883b4815b2ac3860959c6000809054906101000a900473ffffffffffffffffffffffffffffffffffffffff1630604051808373ffffffffffffffffffffffffffffffffffffffff1673ffffffffffffffffffffffffffffffffffffffff1681526020018273ffffffffffffffffffffffffffffffffffffffff1673ffffffffffffffffffffffffffffffffffffffff1681526020019250505060405180910390a1505050565b600160009054906101000a90046fffffffffffffffffffffffffffffffff1681565b60008060008060011515600160109054906101000a900460ff161515141515610c8e57600080fd5b600160009054906101000a90046fffffffffffffffffffffffffffffffff166fffffffffffffffffffffffffffffffff163410151515610ccd57600080fd5b6000809054906101000a900473ffffffffffffffffffffffffffffffffffffffff169350336000806101000a81548173ffffffffffffffffffffffffffffffffffffffff021916908373ffffffffffffffffffffffffffffffffffffffff1602179055507f09f86d61eb5d6904c1fa8e5f071f171ec90eccc6e0a7b61d563a7d693db815f6846000809054906101000a900473ffffffffffffffffffffffffffffffffffffffff16604051808373ffffffffffffffffffffffffffffffffffffffff1673ffffffffffffffffffffffffffffffffffffffff1681526020018273ffffffffffffffffffffffffffffffffffffffff1673ffffffffffffffffffffffffffffffffffffffff1681526020019250505060405180910390a16000600160106101000a81548160ff02191690831515021790555073e4aaa0fc768fbbafaa15f3cf16530b1d082a95b092506014600160009054906101000a90046fffffffffffffffffffffffffffffffff166fffffffffffffffffffffffffffffffff16811515610e5757fe5b04915081600160009054906101000a90046fffffffffffffffffffffffffffffffff160390506000600160006101000a8154816fffffffffffffffffffffffffffffffff02191690836fffffffffffffffffffffffffffffffff1602179055508273ffffffffffffffffffffffffffffffffffffffff166108fc836fffffffffffffffffffffffffffffffff169081150290604051600060405180830381858888f19350505050158015610f0f573d6000803e3d6000fd5b508373ffffffffffffffffffffffffffffffffffffffff166108fc826fffffffffffffffffffffffffffffffff169081150290604051600060405180830381858888f19350505050158015610f68573d6000803e3d6000fd5b5050505050565b828054600181600116156101000203166002900490600052602060002090601f016020900481019282601f10610fb057803560ff1916838001178555610fde565b82800160010185558215610fde579182015b82811115610fdd578235825591602001919060010190610fc2565b5b509050610feb9190610fef565b5090565b61101191905b8082111561100d576000816000905550600101610ff5565b5090565b905600a165627a7a723058204a7791a556846476e31a1dff99b471f71a839fc7a6fe2da45694d882f59ece280029",
  "source": "pragma solidity ^0.4.23;\r\n\r\nimport \"./IERC20Token.sol\";\r\nimport \"./ITradeableContract.sol\";\r\n\r\n/**\r\n * @title TradeableContract\r\n * @dev Contract that represent a Wallet, whose ownership can be traded (sell/buy).\r\n * This contract can be used to receive ERC20 tokens, and has a specific function to withdraw these tokens. \r\n */\r\ncontract TradeableContract is ITradeableContract {\r\n    \r\n  /**\r\n   * @dev Assure that only the owner can invoke a function.   \r\n   */\r\n\tmodifier onlyOwner {\r\n\t\trequire(msg.sender == owner); \t\r\n\t\t_;\r\n\t}\t\t\r\n\r\n\r\n  /**\r\n   * @dev Owner of this contract.   \r\n   */\t\r\n\taddress public owner;\r\n\r\n  /**\r\n   * @dev Price of this contract (the information is only valid if and only if the contract is available to sell.   \r\n   */\r\n\tuint128 public priceToSellInWei;\r\n\r\n  /**\r\n   * @dev Represent the info if the contract is available to sell or not. \r\n   * I could have used price as int and not used this field. It could assume -1 is the contract is not available to sell. \r\n   * However, it is safer to treat price always as uint.  \r\n   */\t\r\n\tbool public isAvailableToSell;\r\n\r\n  /**\r\n   * @dev Hash to the description of this contracts.    \r\n   * The description itself is stored off-chain.  \r\n   * It can be used during sell-buy transactions.\r\n   */\t\r\n\tstring public hashToDescription;\r\n\r\n\r\n  /**\r\n   * @dev Create a new contract. \r\n   * @param ownerAddr is going to be the owner of this contract. \r\n   * It emits an event with the new onwer. Since there is no old owner, it is represented by 0x0.  \r\n   */\r\n\tconstructor (address ownerAddr) public {\r\n\t\towner = ownerAddr;\r\n\t\temit NewOwnerEvent(0x0,owner);\r\n\t}\r\n\r\n\r\n  /**\r\n   * @dev Kill the contract and trasfer funds to its owner. It is also emit a KillEvent.\r\n   * It can only be called by the owner.   \r\n   */\r\n\tfunction kill() public onlyOwner {\r\n\t\temit KillEvent();\t\r\n\t\tselfdestruct(owner);\r\n\t}\r\n\r\n\r\n  /**\r\n   * @dev Return the current owner of this contract.\r\n   * @return the owner of this contract.\r\n   */\t\r\n\tfunction getOwner() external view returns (address) {\r\n\t\treturn owner;\r\n\t}\r\n\r\n  /**\r\n   * @dev Return the hash description of this contract.\r\n   * @return the hash to the description of this contract.\r\n   */\t\r\n\tfunction getHashDescription() external view returns (string) {\r\n\t\treturn hashToDescription;\r\n\t}\r\n\r\n  /**\r\n   * @dev Change the hash to the description to this wallet\r\n   * @param hDescription new hash description to this wallet.\r\n   */\t\r\n\tfunction changeHashDescription(string hDescription) external onlyOwner {\r\n\t\thashToDescription = hDescription;\r\n\t}\r\n\r\n  /**\r\n   * @dev Return the price for sell this contract, in Wei. \r\n   * If the current owner does not put it for sale, the returned value is going to be -1.\r\n   * @return price in Wei or -1.\r\n   */\r\n\tfunction getPriceToSellInWei() external view returns (int256) {\t\t\r\n\t\tif (isAvailableToSell) {\r\n\t\t\treturn priceToSellInWei;\r\n\t\t}  \r\n\t\treturn -1;\r\n\t}\r\n\r\n\r\n  /**\r\n   * @dev Transfer tokens to the owner of its contract. \r\n   * It is necessary to call the transfer function of the original ERC20 contract code.\r\n   *\r\n   * This function is marked as untrusted since this smart contract cannot trust the original code of the ERC-20 token.\r\n   * It executes the external call as the last step in order to avoid attacks.\r\n   * It is important to note that who is going to invoke this function can see the tokenAddr before. \r\n   *\r\n   * It emits an event representing the withdraw. \r\n   * It can only be called by the owner.\r\n   * \r\n   * @param tokenAddr - IERC20 address of tokens to be transfered.\r\n   * @param value Value of tokens to be withdraw.\r\n   * @return bool from the transfer function in the ERC-20 token.\r\n   */\r\n\tfunction makeUntrustedWithdrawalOfTokens (address tokenAddr, uint256 value) external onlyOwner returns (bool) {\r\n\r\n\t\tbool b = IERC20Token(tokenAddr).transfer(owner,value);\r\n\t\t\r\n\t\temit WithdrawTokensEvent(tokenAddr, owner, value, b);\r\n\r\n\t\treturn b;\r\n\r\n\t}\r\n\r\n\r\n   /**\r\n    * @dev Transfer all Ether held by the contract to the owner. \r\n    * It is necessary to avoid lock funds the were send (by mistake) to the contract and were not used.\r\n    * It can only be called by the owner.\r\n    */\r\n\tfunction reclaimEther() external onlyOwner {\r\n\t\towner.transfer(address(this).balance);\r\n\t}\r\n\r\n\r\n   /**\r\n\t* @dev Indicate that this contract is available to sell.\r\n\t* It can only be called by the owner.\r\n\t* It emits an event in order to allow anyone to monitor new opportunities to buy.\r\n\t* @param priceInWei Price that the owner wants to sell this contract (in Wei)\r\n\t* @param hDescription Hash to the description of this contract \r\n\t*/\r\n \tfunction setAvailableToSell (uint128 priceInWei, string hDescription) external onlyOwner {\r\n\t\tisAvailableToSell = true;\r\n\t\tpriceToSellInWei = priceInWei;\r\n\t\thashToDescription = hDescription;\r\n\t\temit AvaliableToSellEvent(owner, address(this));\r\n\t}\r\n\r\n   /**\r\n\t* @dev Change the ownership of this contract. It happens when someone buys an available to sell contract.\r\n\t* This functions is payable - It should receive necessary money to cover the contract price.\r\n\t*\r\n    * This function is marked as untrusted since this smart contract cannot trust the oldOwner code during the transfer.\r\n    * It executes the external calls as the last steps in order to avoid attacks.\r\n\t* FeeAddress is a well-know and safe address, so it must happen before the transfer to the oldOwner.\r\n    * It is important to note that who is going to invoke this function can see the oldOwner code before. \r\n\t*\r\n\t* This function follows the pattern Checks-Effects-Interactions in order to avoid reentrancy attacks. \r\n\t* In this function, the ownership is changed, the old owner receives what price in Wei he asked for \r\n\t* and a fee is collected. \r\n\t* It emits an event with the old and new owners.\r\n\t*/\r\n\tfunction untrustedChangeOwnershipWithTrade () payable external  {\r\n\r\n\t\t//Checks-Effects-Interactions pattern\r\n\r\n\t\t// CHECK - calculating values to transfer \r\n\t\trequire (isAvailableToSell==true);\r\n\t\trequire (msg.value >= priceToSellInWei);     \r\n\r\n\t\t//EFFECTS\r\n\t\taddress oldOwner = owner;      \r\n\t\towner = msg.sender;\r\n\t\temit NewOwnerEvent(oldOwner, owner); \t\r\n\r\n\t\tisAvailableToSell = false;\r\n\r\n\t\t//The option was to transfer to a constant address\r\n\t\t//If this option was receive this address, someone atack by indicating other address \r\n\t\taddress feeAddress = 0xE4aaA0FC768FbBaFAa15f3cf16530b1D082a95b0;\r\n\r\n\t\t// All integer division rounds down to the nearest integer. \r\n\t\t// Then, the charged fee when someone buy a contract is, AT MOST, 5%.\r\n\t\tuint128 feeValueInWei = priceToSellInWei/20;\r\n\t\tuint128 valueToOwnerInWei = priceToSellInWei-feeValueInWei;\r\n\r\n\t\tpriceToSellInWei = 0; //Avoid reentrancy attack\r\n\r\n\t\t//INTERACTION\r\n\t\tfeeAddress.transfer(feeValueInWei);\r\n\t\toldOwner.transfer(valueToOwnerInWei);\r\n\r\n\t}\r\n\r\n   /**\r\n\t* @dev Since this contract represents a wallet it is worth to enable the possibility to receive ether.\r\n\t*/\r\n\tfunction() payable external { \r\n\r\n\t}\r\n\r\n} ",
  "sourcePath": "C:\\workspace\\tradeable-wallet\\back-blockchain\\contracts\\TradeableContract.sol",
  "compiler": {
    "name": "solc",
    "version": "0.4.24+commit.e67f0147.Emscripten.clang"
  },
  "schemaVersion": "2.0.1",
  "updatedAt": "2018-08-26T05:57:03.546Z"
}